:100000000C943E000C9450000C9450000C94500042
:100010000C9450000C9450000C9450000C94500020
:100020000C9450000C9450000C9450000C94500010
:100030000C9450000C9450000C9450000C94500000
:100040000C9450000C9450000C9450000C945000F0
:100050000C9450000C9450000C9450000C945000E0
:100060000C9450000C9450000C9450000C945000D0
:100070000C9450000C9450000C94500011241FBE9E
:10008000CFEFD8E0DEBFCDBF11E0A0E0B1E001C00E
:100090001D92AC31B107E1F70E9452000C94AD06FD
:1000A0000C940000CF93DF9380E00E94180380E05F
:1000B00060E040E00E94AA0384EF91E020E931E093
:1000C000F9013197F1F70197D9F7C0E9D1E088EC50
:1000D00060E040E00E94AA0384EF91E0FE013197C6
:1000E000F1F70197D9F780E060E048EC0E94AA039D
:1000F00084EF91E0FE013197F1F70197D9F7E7CF4F
:10010000413009F03EC1E0910301F091040190916A
:100110001801813021F48081892B808304C0808183
:10012000909598239083E0910701F09108019081C8
:1001300080910E01809589238083E0910701F091E1
:100140000801808190910E01892B8083E091030149
:10015000F09104019091180167FF04C08081892B00
:10016000808304C08081909598239083E09107015B
:10017000F0910801908180910E0180958923808300
:10018000E0910701F0910801808190910E01892B87
:100190008083772767FD7095E0910301F09104015A
:1001A0009091180166FF04C08081892B808304C070
:1001B0008081909598239083E0910701F091080148
:1001C000908180910E01809589238083E0910701C1
:1001D000F0910801808190910E01892B8083E0913C
:1001E0000301F09104019091180165FF04C0808122
:1001F000892B808304C08081909598239083E0911F
:100200000701F0910801908180910E01809589236A
:100210008083E0910701F0910801808190910E01A7
:10022000892B8083E0910301F091040190911801E2
:1002300064FF04C08081892B808304C080819095F5
:1002400098239083E0910701F091080190818091BB
:100250000E01809589238083E0910701F0910801C8
:10026000808190910E01892B8083E0910301F091B0
:1002700004019091180163FF04C08081892B808361
:1002800004C08081909598239083E0910701F091BC
:100290000801908180910E01809589238083E091EF
:1002A0000701F0910801808190910E01892B8083D4
:1002B000E0910301F09104019091180162FF04C0E4
:1002C0008081892B808304C08081909598239083BE
:1002D000E0910701F0910801908180910E018095D5
:1002E00089238083E0910701F0910801808190913A
:1002F0000E01892B8083E0910301F091040190911C
:10030000180161FF04C08081892B808304C0808133
:10031000909598239083E0910701F09108019081D6
:1003200080910E01809589238083E0910701F091EF
:100330000801808190910E01892B8083E091030157
:10034000F09104019091180160FF04C08081892B15
:10035000808304C08081909598239083E091070169
:10036000F0910801908180910E018095892380830E
:10037000E0910701F0910801808190910E01892B95
:1003800080830895682F80E041E00E9480000895F6
:100390001F93982F162F81E0692F41E00E94800063
:1003A00081E0612F41E00E9480001F910895682F35
:1003B00081E041E00E94800008950F931F938B011C
:1003C0000E94C201812F992787FD9A95602F0E9474
:1003D000C8011F910F9108959FEF9AB9803131F4B0
:1003E00084B18F6384B987B1836087B908950F930F
:1003F0001F93E0910901F0910A018081909102011F
:10040000892B808380E29EE40197F1F7E091090156
:10041000F0910A0190818091020180958923808367
:1004200020E63AEEC9010197F1F7E0910901F09158
:100430000A01808190910201892B8083C901019773
:10044000F1F7E0910C01F0910D0190818091010193
:1004500080958923808381EC0E94C2018FEF0E94E6
:10046000D70183E80E94D70180E40E94D70181E18F
:100470000E94C20188EE93E020E931E0F901319752
:10048000F1F70197D9F78AEC0E94C20180E70E9438
:10049000D70180E00E94D70189ED0E94D70181E059
:1004A0000E94D70181E10E94D70189EC0E94C2011C
:1004B00080E90E94D70189E40E94D70180E10E946F
:1004C000D70188E20E94D70188E20E94D70180E12B
:1004D0000E94D70180E00E94D70186E00E94D701E8
:1004E00088EC90E020E931E0F9013197F1F70197CC
:1004F000D9F782EC0E94C20180E60E94D70181E711
:100500000E94D70181E00E94D7018EE00E94D701AE
:1005100085E00E94D70182E00E94D70189E00E9415
:10052000D70181E30E94D7018AE00E94D70183ECC2
:100530000E94C20187E60E94D70180E30E94D70192
:1005400081E60E94D70187E10E94D70188E40E94DA
:10055000D70187E00E94D70185E00E94D70183E39D
:100560000E94D70100E41CE9C8010197F1F785EB6F
:100570000E94C20185E30E94D70180E20E94D70158
:1005800085E40E94D70184EB0E94C20183E30E94AC
:10059000D70185E20E94D7018CE40E94D701C801EF
:1005A0000197F1F78AE30E94C20185E00E94D7011A
:1005B00089E20E94C201C8010197F1F78AE20E9414
:1005C000C20180E00E94D70180E00E94D70180E054
:1005D0000E94D7018FEA0E94D7018BE20E94C201DC
:1005E00080E00E94D70180E00E94D70180E00E9455
:1005F000D7018BED0E94D7018CE20E94C201E091ED
:100600000C01F0910D01808190910101892B808373
:100610008FEF809306018093150180931A01109249
:100620001B011092190110920B011F910F91089557
:100630008093050128E230E0309304012093030108
:1006400082E080931801399A3093080120930701C2
:1006500081E080930E01389A25E230E030930D015D
:1006600020930C0180E180930101249A30930A01C8
:100670002093090188E080930201239A0E94F701E8
:100680000895CF92DF92EF92FF920F931F93CF9333
:10069000DF93EC017B018A016901809105018130C2
:1006A00059F48BED90E09C012C1B3D0BEB017C0180
:1006B000E41AF50A860169018AE20E94C2018D2FBF
:1006C000992787FD9A950E94D7018C2F0E94D70108
:1006D000812F992787FD9A950E94D701802F0E942C
:1006E000D7018BE20E94C2018F2D992787FD9A9531
:1006F0000E94D7018E2D0E94D7018D2D992787FD4D
:100700009A950E94D7018C2D0E94D7018CE20E94FD
:10071000C201DF91CF911F910F91FF90EF90DF9079
:10072000CF90089580910501882349F480E090E0FE
:1007300060E070E04FEA50E02BED30E008C080E070
:1007400090E060E070E04BED50E02FEA30E00E9476
:10075000410308950F931F93CF93DF93142F062F18
:10076000029506950770887F082B70E06C71707099
:1007700053E0660F771F5A95E1F716951695169573
:10078000162BE0910C01F0910D01908180910101F7
:100790008095892380830E949203C0E0D0E081E0AD
:1007A000602F41E00E94800081E0612F41E00E94C3
:1007B0008000219687E9C034D80789F7E0910C01C1
:1007C000F0910D01808190910101892B8083DF914F
:1007D000CF911F910F910895CF93DF93E0910C017A
:1007E000F0910D0190818091010180958923808392
:1007F0000E949203C0E0D0E081E060E041E00E940E
:10080000800081E060E041E00E948000219687E95D
:10081000C034D80789F7E0910C01F0910D01808177
:1008200090910101892B8083DF91CF910895887F7A
:10083000262F30E02C71307073E0220F331F7A9531
:10084000E1F7469546954695422B62956695677009
:10085000862B642F0E94C8010895AC019B01E09192
:100860000C01F0910D019081809101018095892307
:100870008083CA010E9441038091060160911501A5
:1008800040911A010E941704E0910C01F0910D01B2
:10089000808190910101892B80830E9492030895A9
:1008A000809306016093150140931A010895809387
:1008B0001B016093190140930B010895FC01909373
:1008C000100180930F0184918093110131968491DE
:1008D0008093120131968491809313013196E491B3
:1008E000E093140108954F925F926F927F928F92DE
:1008F0009F92AF92BF92CF92DF92EF92FF920F93AF
:100900001F93CF93DF933B012A01E0910C01F091FB
:100910000D012081909101019095922390839091F7
:100920000501C82FD0E0992309F067C0409111015B
:1009300050E041505040460F571F2091120130E0C7
:1009400021503040240D351DCB01B2010E944103DE
:100950008091110186958695869520911201829F3E
:10096000C001112420911301C21BD1098C9F800169
:100970008D9F100D9C9F100D11240C5F1F4FEE24B6
:10098000FF242DC0E0910F01F0911001E00FF11F45
:10099000E491C7E0D0E0CE2EDD24C6010C2E02C0CB
:1009A000959587950A94E2F780FF07C0809106012C
:1009B0006091150140911A0106C080911B01609160
:1009C000190140910B010E94170421972FEFCF3F8F
:1009D000D20719F70F5F1F4F0894E11CF11C80919B
:1009E000110186958695869520911201829FC001FE
:1009F0001124E816F90634F289C080911101869518
:100A00008695869520911201829FC0011124209124
:100A10001301C21BD1098C9F60018D9FD00C9C9F3C
:100A2000D00C112484E090E0C80ED91EAA24BB2467
:100A300056C0C5010E9449069B01240D351D50E09A
:100A400041505040460D571DC301B9010E9441035A
:100A500080911101869586958695082F10E00150AA
:100A600010407801EC0CFD1C2CC0E0910F01F091BE
:100A70001001EE0DFF1DE491C0E0D0E08E2E992410
:100A8000C4010C2E02C0959587950A94E2F780FF69
:100A900007C0809106016091150140911A0106C0BE
:100AA00080911B016091190140910B010E94170474
:100AB0002196C830D10521F7015010400894E10873
:100AC000F1089FEF0F3F190781F68091110186957C
:100AD0008695869590E0C80ED91EA80EB91E409145
:100AE0001101842F869586958695682F70E08091F8
:100AF000120190E09C01629FC001639F900D729F64
:100B0000900D1124A816B9060CF493CFE0910C01B6
:100B1000F0910D01808190910101892B80830E94C9
:100B20009203DF91CF911F910F91FF90EF90DF9093
:100B3000CF90BF90AF909F908F907F906F905F907D
:100B40004F9008958F929F92AF92BF92CF92DF9273
:100B5000EF92FF920F931F93CF93DF936C01EB0102
:100B60004A015901DC010D900020E9F77D0108944C
:100B7000E108F108E81AF90A80910501882359F57E
:100B8000B7E26F307B0779F48091110190E0FC01AE
:100B9000EE9DC001EF9D900DFE9D900D1124C0EBC8
:100BA000D0E0C81BD90BF7E2CE30DF0709F047C011
:100BB0008091110190E08E9D90018F9D300D9E9D42
:100BC000300D1124442737FD4095542F60EB70E021
:100BD00080E090E029C027E26F30720779F48091BD
:100BE000110190E0DC01AE9DC001AF9D900DBE9D56
:100BF000900D1124CCEDD0E0C81BD90BB7E2CE305C
:100C0000DB07E9F48091110190E08E9D90018F9DAA
:100C1000300D9E9D300D1124442737FD4095542FF3
:100C20006CED70E080E090E0621B730B840B950B21
:100C300022E030E040E050E00E945C06E90100E084
:100C400010E017C0A114B10491F48091110190E05B
:100C5000089FB001099F700D189F700D11246C0F33
:100C60007D1FF60181916F01A4010E9473040F5F43
:100C70001F4F0E151F0534F3DF91CF911F910F9178
:100C8000FF90EF90DF90CF90BF90AF909F908F90AC
:100C9000089597FB092E07260AD077FD04D027D0A8
:100CA00006D000201AF4709561957F4F0895F6F7ED
:100CB000909581959F4F089597FB092E05260ED09C
:100CC00057FD04D028D00AD0001C38F45095409528
:100CD000309521953F4F4F4F5F4F0895F6F7909510
:100CE0008095709561957F4F8F4F9F4F0895AA1BF8
:100CF000BB1B51E107C0AA1FBB1FA617B70710F007
:100D0000A61BB70B881F991F5A95A9F78095909538
:100D1000BC01CD010895A1E21A2EAA1BBB1BFD0147
:100D20000DC0AA1FBB1FEE1FFF1FA217B307E407CA
:100D3000F50720F0A21BB30BE40BF50B661F771F22
:100D4000881F991F1A9469F7609570958095909502
:0E0D50009B01AC01BD01CF010895F894FFCFC7
:00000001FF
