:100000000C947D020C949A020C949A020C949A021D
:100010000C949A020C949A020C949A020C949A02F0
:100020000C949A020C949A020C949A020C949A02E0
:100030000C949A020C94220A0C949A020C949A0240
:100040000C949A020C949A020C949A020C949A02C0
:100050000C949A020C949A020C949A020C949A02B0
:100060000C949A020C949A020C949A020C949A02A0
:100070000C949A020C949A020C949A02080C205F39
:100080000000000000000000000000000000202030
:1000900020202020002000000028505000000000F8
:1000A0000000000000002828FC2850FC50500000F0
:1000B000002078A8A0603028A8F02000000048A800
:1000C000B050283454480000000020505078A8A8B0
:1000D000906C000000404080000000000000000024
:1000E0000004081010101010100804000040201028
:1000F000101010101020400000000020A87070A800
:10010000200000000000202020F820202000000017
:1001100000000000000000000040408000000000DF
:1001200000F80000000000000000000000000000D7
:1001300000400000000810101020204040408000C7
:10014000000070888888888888700000000020601F
:10015000202020202070000000007088881020409F
:1001600080F80000000070880830080888700000DF
:100170000000103050509078101800000000F880F7
:1001800080F00808887000000000709080F0888877
:10019000887000000000F89010202020202000002F
:1001A000000070888870888888700000000070885F
:1001B00088887808487000000000000020000000D7
:1001C00000200000000000000020000000202000AF
:1001D0000004081020402010080400000000000067
:1001E000F80000F80000000000402010080408108B
:1001F00020400000000070888810202000200000AF
:100200000000708898A8A8B880780000000020201E
:100210003050507848CC00000000F0484870484802
:1002200048F000000000788880808080887000009E
:100230000000F0484848484848F000000000F848EE
:100240005070504048F800000000F848507050408E
:1002500040E000000000384880809C884830000062
:100260000000CC484878484848CC00000000F820FE
:100270002020202020F8000000007C10101010101A
:100280001090E0000000EC485060505048EC000036
:100290000000E0404040404044FC00000000D8D84E
:1002A000D8D8A8A8A8A800000000DC48686858585A
:1002B00048E80000000070888888888888700000FE
:1002C0000000F0484870404040E0000000007088A6
:1002D000888888E8987018000000F04848705048F6
:1002E00048EC0000000078888060100888F000006A
:1002F0000000F8A820202020207000000000CC483A
:1003000048484848483000000000CC484850503029
:10031000202000000000A8A8A870505050500000F5
:100320000000D8505020205050D800000000D85075
:1003300050202020207000000000F8901020204065
:1003400048F80000003820202020202020203800FD
:1003500000404040202010101008000000701010D5
:10036000101010101010700000205000000000004D
:10037000000000000000000000000000000000FC81
:10038000002000000000000000000000000000004D
:1003900000304838483C00000000C04040704848E9
:1003A000487000000000000000384840403800005D
:1003B0000000180808384848483C000000000000C9
:1003C000003048784038000000001C2020782020B1
:1003D0002078000000000000003C4830407844389D
:1003E0000000C0404070484848EC00000000200079
:1003F000006020202070000000001000003010106D
:10040000101010E00000C040405C507048EC00004C
:100410000000E0202020202020F800000000000044
:1004200000F0A8A8A8A800000000000000F04848BC
:1004300048EC000000000000003048484830000050
:100440000000000000F04848487040E00000000054
:10045000003848484838081C0000000000D86040B8
:1004600040E0000000000000007840300878000004
:100470000000002020702020201800000000000054
:1004800000D84848483C00000000000000EC4850FC
:10049000302000000000000000A8A87050500000AC
:1004A0000000000000D8502050D8000000000000DC
:1004B00000EC4850302020C00000000000781020E0
:1004C00020780000001810101020101010101800D4
:1004D00010101010101010101010101000602020BC
:1004E000201020202020600040A418000000000000
:1004F000000000000000200C000511241FBECFEFFB
:10050000D8E0DEBFCDBF11E0A0E0B1E0E6E9F6E261
:1005100002C005900D92AA31B107D9F711E0AAE106
:10052000B1E001C01D92AE39B107E1F70E949C0213
:100530000C9449130C940000CF92DF92EF92FF923B
:100540000F931F93DF93CF93CDB7DEB765970FB6A9
:10055000F894DEBF0FBECDBF81E00E94A4058CE7FA
:1005600090E00E94F706DE011A96E0E0F1E08CE0F0
:1005700001900D928150E1F7DE011196ECE0F1E07F
:1005800089E001900D928150E1F760E040E00E9427
:10059000430684EF91E020E931E0F9013197F1F76A
:1005A0000197D9F78AE0C82ED12CCC0EDD1E00E9C8
:1005B00011E07E010894E11CF11C84E660E040E05B
:1005C0000E94E906C60160E070E040E050E020E0F3
:1005D00030E00E945B0984EF91E0F8013197F1F778
:1005E0000197D9F7C70166E970E040E050E020E0EC
:1005F00030E00E945B0984EF91E0F8013197F1F758
:100600000197D9F78FE760E04AEF0E94E90685E09D
:1006100090E066E470E042E350E024E630E00E94BF
:10062000E80884EF91E0F8013197F1F70197D9F7E5
:10063000C4CF413009F03EC1E0918501F0918601BF
:1006400090919A01813021F48081892B808304C0AC
:100650008081909598239083E0918901F0918A019F
:10066000908180919001809589238083E091890118
:10067000F0918A01808190919001892B8083E09193
:100680008501F091860190919A0167FF04C08081F5
:10069000892B808304C08081909598239083E0917A
:1006A0008901F0918A019081809190018095892340
:1006B0008083E0918901F0918A018081909190017D
:1006C000892B8083772767FD7095E0918501F091F4
:1006D000860190919A0166FF04C08081892B8083F6
:1006E00004C08081909598239083E0918901F091D6
:1006F0008A01908180919001809589238083E09187
:100700008901F0918A01808190919001892B8083E9
:10071000E0918501F091860190919A0165FF04C0F6
:100720008081892B808304C0808190959823908359
:10073000E0918901F0918A019081809190018095EA
:1007400089238083E0918901F0918A0180819091D1
:100750009001892B8083E0918501F0918601909131
:100760009A0164FF04C08081892B808304C080814A
:10077000909598239083E0918901F0918A0190816E
:1007800080919001809589238083E0918901F09187
:100790008A01808190919001892B8083E09185016D
:1007A000F091860190919A0163FF04C08081892BAA
:1007B000808304C08081909598239083E091890183
:1007C000F0918A01908180919001809589238083A6
:1007D000E0918901F0918A01808190919001892BAB
:1007E0008083E0918501F091860190919A0162FFEA
:1007F00004C08081892B808304C0808190959823D8
:100800009083E0918901F0918A019081809190011B
:10081000809589238083E0918901F0918A0180810C
:1008200090919001892B8083E0918501F091860160
:1008300090919A0161FF04C08081892B808304C05C
:100840008081909598239083E0918901F0918A01AD
:10085000908180919001809589238083E091890126
:10086000F0918A01808190919001892B8083E091A1
:100870008501F091860190919A0160FF04C080810A
:10088000892B808304C08081909598239083E09188
:100890008901F0918A01908180919001809589234E
:1008A0008083E0918901F0918A018081909190018B
:1008B000892B80830895682F80E041E00E9419030E
:1008C00008951F93982F162F81E0692F41E00E9411
:1008D000190381E0612F41E00E9419031F910895DF
:1008E000682F81E041E00E94190308950F931F9340
:1008F0008B010E945B04812F992787FD9A95602FB9
:100900000E9461041F910F9108959FEF9AB9803161
:1009100031F484B18F6384B987B1836087B9089556
:100920000F931F93E0918B01F0918C018081909146
:100930008401892B808380E29EE40197F1F7E091A6
:100940008B01F0918C0190818091840180958923A5
:10095000808320E63AEEC9010197F1F7E0918B011F
:10096000F0918C01808190918401892B8083C90151
:100970000197F1F7E0918E01F0918F0190818091C4
:10098000830180958923808381EC0E945B048FEF33
:100990000E94700483E80E94700480E40E94700446
:1009A00081E10E945B0488EE93E020E931E0F901E7
:1009B0003197F1F70197D9F78AEC0E945B0480E741
:1009C0000E94700480E00E94700489ED0E9470040F
:1009D00081E00E94700481E10E94700489EC0E9411
:1009E0005B0480E90E94700489E40E94700480E145
:1009F0000E94700488E20E94700488E20E947004E1
:100A000080E10E94700480E00E94700486E00E94F1
:100A1000700488EC90E020E931E0F9013197F1F7BA
:100A20000197D9F782EC0E945B0480E60E94700473
:100A300081E70E94700481E00E9470048EE00E94B1
:100A4000700485E00E94700482E00E94700489E0D6
:100A50000E94700481E30E9470048AE00E94700486
:100A600083EC0E945B0487E60E94700480E30E948E
:100A7000700481E60E94700487E10E94700488E49B
:100A80000E94700487E00E94700485E00E94700458
:100A900083E30E94700400E41CE9C8010197F1F7A8
:100AA00085EB0E945B0485E30E94700480E20E9453
:100AB000700485E40E94700484EB0E945B0483E36D
:100AC0000E94700485E20E9470048CE40E9470040D
:100AD000C8010197F1F78AE30E945B0485E00E9458
:100AE000700489E20E945B04C8010197F1F78AE271
:100AF0000E945B0480E00E94700480E00E94700409
:100B000080E00E9470048FEA0E9470048BE20E94D1
:100B10005B0480E00E94700480E00E94700480E02A
:100B20000E9470048BED0E9470048CE20E945B04B2
:100B3000E0918E01F0918F01808190918301892B4A
:100B400080831F910F9108958093870128E230E000
:100B5000309386012093850182E080939A01399A2F
:100B600030938A012093890181E080939001389A23
:100B700025E230E030938F0120938E0180E1809355
:100B80008301249A30938C0120938B0188E0809319
:100B90008401239A0E9490048FEF809388018093B0
:100BA000970180939C0110929D0110929B011092DD
:100BB0008D010895CF92DF92EF92FF920F931F93D2
:100BC000CF93DF93EC017B018A016901809187015A
:100BD000813059F48BED90E09C012C1B3D0BEB0117
:100BE0007C01E41AF50A860169018AE20E945B042D
:100BF0008D2F992787FD9A950E9470048C2F0E9453
:100C00007004812F992787FD9A950E947004802F88
:100C10000E9470048BE20E945B048F2D992787FD50
:100C20009A950E9470048E2D0E9470048D2D992734
:100C300087FD9A950E9470048C2D0E9470048CE2AE
:100C40000E945B04DF91CF911F910F91FF90EF9075
:100C5000DF90CF90089580918701882349F480E048
:100C600090E060E070E04FEA50E02BED30E008C02B
:100C700080E090E060E070E04BED50E02FEA30E083
:100C80000E94DA0508950F931F93CF93DF93142FDB
:100C9000062F029506950770887F082B70E06C710F
:100CA000707053E0660F771F5A95E1F71695169509
:100CB0001695162BE0918E01F0918F019081809115
:100CC00083018095892380830E942B06C0E0D0E0B9
:100CD00081E0602F41E00E94190381E0612F41E033
:100CE0000E941903219687E9C034D80789F7E0915B
:100CF0008E01F0918F01808190918301892B8083F7
:100D0000DF91CF911F910F910895CF93DF93E091E1
:100D10008E01F0918F0190818091830180958923CC
:100D200080830E942B06C0E0D0E081E060E041E0DB
:100D30000E94190381E060E041E00E9419032196BE
:100D400087E9C034D80789F7E0918E01F0918F01CF
:100D5000808190918301892B8083DF91CF910895C9
:100D6000887F262F30E02C71307073E0220F331F04
:100D70007A95E1F7469546954695422B629566959C
:100D80006770862B642F0E9461040895AC019B015B
:100D9000E0918E01F0918F01908180918301809587
:100DA00089238083CA010E94DA05809188016091BD
:100DB000970140919C010E94B006E0918E01F09154
:100DC0008F01808190918301892B80830E942B0663
:100DD0000895809388016093970140939C01089542
:100DE00080939D0160939B0140938D010895FC01C8
:100DF0009093920180939101849180939301319615
:100E000084918093940131968491809395013196D9
:100E1000E491E093960108954F925F926F927F92D2
:100E20008F929F92AF92BF92CF92DF92EF92FF92FA
:100E30000F931F93CF93DF933B012A01E0918E0123
:100E4000F0918F012081909183019095922390835E
:100E500090918701C82FD0E0992309F067C0409195
:100E6000930150E041505040460F571F209194018C
:100E700030E021503040240D351DCB01B2010E94DD
:100E8000DA05809193018695869586952091940147
:100E9000829FC001112420919501C21BD1098C9F12
:100EA00080018D9F100D9C9F100D11240C5F1F4F12
:100EB000EE24FF242DC0E0919101F0919201E00F0A
:100EC000F11FE491C7E0D0E0CE2EDD24C6010C2E48
:100ED00002C0959587950A94E2F780FF07C080913C
:100EE00088016091970140919C0106C080919D010D
:100EF00060919B0140918D010E94B00621972FEFD8
:100F0000CF3FD20719F70F5F1F4F0894E11CF11C68
:100F10008091930186958695869520919401829F74
:100F2000C0011124E816F90634F289C080919301BA
:100F300086958695869520919401829FC001112403
:100F400020919501C21BD1098C9F60018D9FD00C0F
:100F50009C9FD00C112484E090E0C80ED91EAA24D6
:100F6000BB2456C0C5010E94AE129B01240D351D45
:100F700050E041505040460D571DC301B9010E9439
:100F8000DA0580919301869586958695082F10E065
:100F9000015010407801EC0CFD1C2CC0E091910137
:100FA000F0919201EE0DFF1DE491C0E0D0E08E2E95
:100FB0009924C4010C2E02C0959587950A94E2F7F6
:100FC00080FF07C0809188016091970140919C014A
:100FD00006C080919D0160919B0140918D010E940E
:100FE000B0062196C830D10521F701501040089471
:100FF000E108F1089FEF0F3F190781F680919301F7
:1010000086958695869590E0C80ED91EA80EB91EC5
:1010100040919301842F869586958695682F70E080
:101020008091940190E09C01629FC001639F900DAC
:10103000729F900D1124A816B9060CF493CFE0917D
:101040008E01F0918F01808190918301892B8083A3
:101050000E942B06DF91CF911F910F91FF90EF908F
:10106000DF90CF90BF90AF909F908F907F906F90C8
:101070005F904F900895CF92DF92EF92FF920F937F
:101080001F93CF93DF93DC017B01EA01A9018091DB
:101090009701C82EC294C694F7E0CF222091880110
:1010A000287FC22A90E08C719070E3E0880F991F2E
:1010B000EA95E1F7D0909C01D694D694D694D82A9C
:1010C000E0918E01F0918F01908180918301809554
:1010D000892380834436510559F48E010F5F1F4FD9
:1010E000CA0FDB1FCD01AE0197010E94DA050BC0CC
:1010F0004536510539F49E01260F371FCD01AD014C
:101100000E94DA058E01C0E0D0E005C08C2D6D2D67
:101110000E9461042196C017D107C4F3E0918E01AB
:10112000F0918F01808190918301892B80830E94AF
:101130002B06DF91CF911F910F91FF90EF90DF90E1
:10114000CF900895AF92BF92CF92DF92EF92FF922D
:101150000F931F93CF93DF93EC017B015A01690139
:101160004817590714F45E01EA01CE14DF041CF499
:10117000C60167017C0185010C1B1D0BCE01B70167
:10118000A80124E630E00E943B08CE01B601A80188
:1011900024E630E00E943B0886010E191F09CE01AB
:1011A000B701A80125E630E00E943B08C501B70160
:1011B000A80125E630E00E943B08DF91CF911F9106
:1011C0000F91FF90EF90DF90CF90BF90AF90089578
:1011D0008F929F92AF92BF92CF92DF92EF92FF9247
:1011E0000F931F93CF93DF934C015B017A01690149
:1011F0004817590714F474014A01CA14DB041CF49B
:10120000C60165015C0180918701882369F0C701EF
:101210008819990962E070E00E94AE128B01C0E06B
:10122000D0E0CA18DB0837C0C6018A199B0962E002
:1012300070E00E94AE128B01C0E0D0E0E818F9081F
:1012400013C0BE016A0D7B1DC401A70124E630E076
:101250000E943B08B6016C1B7D0BC401A70124E66C
:1012600030E00E943B0821960C171D0754F716C06A
:10127000CE01880D991DB501A60125E630E00E943A
:101280003B08C7018C1B9D0BB501A60125E630E08C
:101290000E943B0821960C171D0754F7DF91CF9150
:1012A0001F910F91FF90EF90DF90CF90BF90AF9084
:1012B0009F908F9008958F929F92AF92BF92CF92FE
:1012C000DF92EF92FF920F931F93CF93DF936C0106
:1012D000EB014A015901DC010D900020E9F77D0185
:1012E0000894E108F108E81AF90A80918701882337
:1012F00059F5B7E26F307B0779F48091930190E064
:10130000FC01EE9DC001EF9D900DFE9D900D1124FE
:10131000C0EBD0E0C81BD90BF7E2CE30DF0709F0F5
:1013200047C08091930190E08E9D90018F9D300D7C
:101330009E9D300D1124442737FD4095542F60EBBE
:1013400070E080E090E029C027E26F30720779F406
:101350008091930190E0DC01AE9DC001AF9D900DA6
:10136000BE9D900D1124CCEDD0E0C81BD90BB7E287
:10137000CE30DB07E9F48091930190E08E9D9001DF
:101380008F9D300D9E9D300D1124442737FD4095D3
:10139000542F6CED70E080E090E0621B730B840BC7
:1013A000950B22E030E040E050E00E94C112E901DC
:1013B00000E010E017C0A114B10491F480919301F2
:1013C00090E0089FB001099F700D189F700D1124C7
:1013D0006C0F7D1FF60181916F01A4010E940C0723
:1013E0000F5F1F4F0E151F0534F3DF91CF911F9133
:1013F0000F91FF90EF90DF90CF90BF90AF909F90B4
:101400008F900895209115013091160188EE93E098
:10141000AC01249FC001259F900D349F900D112495
:101420009093890080938800EFE6F0E080818260ED
:101430008083E1E8F0E08081826080838081886041
:10144000808308951F920F920FB60F9211242F934D
:101450003F938F939F9381E080931C0180911D01A6
:1014600090911E012091150130911601820F931F5A
:1014700090931E0180931D019F918F913F912F9119
:101480000F900FBE0F901F90189528EE33E0AC011F
:10149000429FC001439F900D529F900D1124909345
:1014A000890080938800089500E80093610000E0BF
:1014B0000093610000E80093550000E80093550098
:1014C0000000000085B7806185BF08953F937F933A
:1014D0009F93762F7095982F909531B1392331B91C
:1014E00034B1372334B932B1382B32B935B137235F
:1014F00035B934B1362B34B99F917F913F9108951E
:101500003F937F939F93762F7095982F909534B14A
:10151000732374B931B1762B382B932331B991B938
:1015200074B99F9180B184237F913F9108953F9337
:101530009F93982F909532B1392332B931B1382B1E
:1015400031B99F913F91089580911C018823A1F0AA
:1015500010921C0180911D0190911E010E943D0C72
:1015600090932301809322018070917090932101C8
:1015700080932001892B71F70895BF92CF92DF925B
:10158000EF92FF920F931F9355E0B52EB092740126
:1015900042E0D42ED092750110927601109277011C
:1015A000B0927001D0927101109272011092730189
:1015B00080E090E062E070E040E050E02AE003E08C
:1015C00010E037E0E32EF12CCC240E9408118DE0CE
:1015D0009BE060E070E00E94E50BD092410184E165
:1015E00080934401B09245011092430180934201DF
:1015F00081E090E09093400180933F01109246017A
:1016000010922C0110922B0178941F910F91FF9052
:10161000EF90DF90CF90BF900895A1E0B0E0E3E1BC
:10162000FBE00C94E212FFB690E8F9221982909147
:101630002401913019F091E09093240190E024E787
:10164000A22E21E0B22EA80EB91EF501D08080593D
:101650009E4FFC01C080F894DD2009F4A9C0F5017B
:1016600080810E94970A8D2D6C2D0E94660AED2CB8
:1016700080E000E010E0812C90E2992E15FF07C079
:101680009091750120917401922B11F533C08FB7A1
:101690008F298FBF0000F8948D2D6C2D4E2D0E9448
:1016A000800A0F5F1F4F909119019F5F909319015E
:1016B000923030F0923021F0933011F010921901F5
:1016C0008823E1F29091750120917401922B14C04E
:1016D00020E0E0FE09C0E22FF0E0EE0FFF1FE35D27
:1016E000FE4F9182808201C090FD2F5F9695E69417
:1016F000992379F790E0EE242FB72F292FBF10926E
:1017000025019923D1F1EE20C1F120917101309191
:101710007001232B582F30E070E060E040E021C0E2
:1017200050FF18C012C020FF0FC0461761F4E32F0E
:10173000F0E0EE0FFF1FE35DFE4F11830083E52F06
:10174000EE7F31F008C06F5F2695222361F703C05A
:1017500071E001C090FD4F5F90FD3F5F56959695FB
:1017600011F05523E9F6309325018095E82280E0B9
:101770007130D1F4EE20B1F017C090917501209135
:101780007401922B99839091250106C0298120FD37
:101790009F5F29812695298329812223B9F7909378
:1017A000250102C000E010E0F894EE2009F066CFB9
:1017B000F50180810E94970A109226018FB78F2928
:1017C0008FBF2196ECE00C94FE12FF920F931F93B3
:1017D000CF93DF938C01EB01FF2404C08F2D0E9477
:1017E0004B0DF39480914B01F816C0F31092470112
:1017F000109246011093280100932701CE010E9408
:10180000E30FCDB7DEB7E5E00C940513FC0180E2F1
:101810009CE0918380831382128280E095E095831F
:1018200084830895CF93C0E004C08C2F0E944B0D99
:10183000CF5F80914B01C817C0F3CF9108951092EC
:101840004B011092780184E08093400184E1809301
:10185000430195E09093440110924201809341012D
:10186000E0E4F1E081E0829383E086830E94E80F68
:1018700010922C0110922B0108951F93CF93DF93A8
:1018800010922A011092290140914601509147017E
:10189000909347018093460120914801309149017E
:1018A000241B350B280F391FC0E003C0285C3040D3
:1018B000CF5F283C3105D0F7309349012093480190
:1018C00080914A01882341F08C1718F410924A0144
:1018D00003C08C1B80934A010E94F90FE0912B01F9
:1018E000F0912C01309709F0099510E0D0E006C086
:1018F0008D2F6C2F0E945E0D182BDF5F50914B01D6
:10190000D517B0F3112349F08091290190912A0154
:10191000916090932A018093290110923D01ACE4DB
:10192000B1E040E081E090E018C02C91287199F07E
:10193000E42FE695E695E695F0E0E35DFE4F242F73
:101940002770BC0102C0660F771F2A95E2F79B0142
:101950003089322B308B4F5F1896451731F78091C5
:10196000290190912A01DF91CF911F9108959091C3
:101970004B01E92FF0E033E0EE0FFF1F3A95E1F75E
:10198000E45BFE4F43836770858386832370660F15
:10199000660F660F262B24839F5F90934B0108955B
:1019A000A1E0B0E0E6EDFCE00C94E812082F10E0B6
:1019B00063E0000F111F6A95E1F7F801E45BFE4F49
:1019C0006581438150E000903F0102C055954795E5
:1019D0000A94E2F7443008F444E090914B018917EF
:1019E00088F55CE4E52E51E0F52EE00EF11EF701DE
:1019F0009481292F207C01F5862F49830E94CD0FE9
:101A00004981242F30E04695469550E0421B530B08
:101A10004817590724F4F70144814B7F44833095DC
:101A200021953F4F281739077CF0F801E45BFE4F02
:101A300024812460248308C09B7FF70194830E9443
:101A4000261102C080E090E02196E6E00C94041399
:101A5000E82FF0E083E0EE0FFF1F8A95E1F7E45BEB
:101A6000FE4F2581368182E080838091290190910B
:101A70002A01826090932A01809329011282822F89
:101A800090E806C0E82FF0E0E459FE4F90838F5FA6
:101A90003817C0F70895CF93C82F0E94280DEC2F58
:101AA000F0E093E0EE0FFF1F9A95E1F7E45BFE4F45
:101AB00081E080838FE08183CF9108954F925F9280
:101AC0006F927F928F929F92AF92BF92DF92EF922E
:101AD000FF920F931F93CF93DF930F92CDB7DEB793
:101AE000182FE62E0E94D00C4C01A12EBB2463E0DF
:101AF000AA0CBB1C6A95E1F7F501E45BFE4F44813B
:101B0000238130E0842F837090E00196B90102C0F8
:101B1000759567958A95E2F7CB01623008F482E00B
:101B2000B901681B7109F501E45BFE4F80818430C7
:101B300009F4D4C0853030F4813071F0823009F07E
:101B400019C257C0803109F45FC1803209F4E8C17D
:101B5000883009F00FC2B8C12091290130912A01C3
:101B60003260658176817F010894E11CF11C2BC0F5
:101B7000F7018081E62FF0E0DF01AA0FBB1FAB5C0D
:101B8000BE4F8A3038F0EE0FFF1FE35DFE4F8081BD
:101B9000918114C04D915C911197EE0FFF1FE35D91
:101BA000FE4F808191818417950718F4CA0101972F
:101BB00005C04817590730F4CA01019611969C9345
:101BC0008E9328606F5F761798F630932A012093E2
:101BD0002901F501E45BFE4F8181815081838823D7
:101BE00019F4812F0E94280D8091410180934A01B0
:101BF000B9C142FF08C0A581B0E0A459BE4F1C92F4
:101C000080E28083A6C1C40197FE02C080E090E01C
:101C10008217930738F0F501E45BFE4F84E0808380
:101C20001282A2C1EE2009F4A5C180914A01882345
:101C300009F0A0C1F501E45BFE4F2581D68030910B
:101C40004401305800E8A02E80914301A81A609109
:101C5000290170912A0180E8882E39C0422F50E076
:101C6000DA01AA0FBB1FAB5CBE4F8D919C911197FF
:101C7000FA01EE0FFF1FE35DFE4F00811181FA01B3
:101C8000E459FE4F8017910740F440814E0D408388
:101C90004317E0F0808201960AC00817190760F424
:101CA00040814E194083A41688F0808201971196D6
:101CB0009C938E9368600AC08081813810F08150B7
:101CC0008083808187FD02C08F5F80832F5FD21663
:101CD00028F670932A01609329014CC1C40197FE34
:101CE00002C080E090E08217930708F427C180913A
:101CF000410180934A01F501E45BFE4F82818F5FD1
:101D00008283848190E08873907063E096958795D4
:101D10006A95E1F7D82E8823B9F549C0011791F1EA
:101D2000402E552443E0440C551C4A95E1F76CE4E1
:101D300071E0460E571EF201848190E08873907026
:101D400053E0969587955A95E1F7D816D9F4802FE8
:101D500029830E94D00CF2013381AC01431B51094D
:101D6000F3018081B401681B71092981641775072B
:101D700034F0F2018081803111F0883019F4F701DC
:101D8000108221E00F5F0CC020E000E033E0632E02
:101D9000712C6E0E7F1E7F0162E070E0E60EF71E72
:101DA00080914B01081708F4B9CF222379F4809170
:101DB0004001882359F08091290190912A0198606F
:101DC00090932A018093290101E001C000E0F50110
:101DD000E45BFE4F928180914001981708F4CBC0DC
:101DE0002091290130912A01236030932A01209308
:101DF000290180E1808311828481807C09F4BBC049
:101E0000812F0E949812B7C02091290130912A0198
:101E100042FF0EC0A581B0E0A459BE4F80E88C936C
:101E200080E28083306130932A012093290144C0ED
:101E3000C40197FE02C080E090E08617970758F42F
:101E4000F501E45BFE4F88E0808380912901909149
:101E50002A0194602DC0216030932A01209329012A
:101E6000F501E45BFE4F828190914001891710F4E7
:101E70008F5F8283F501E45BFE4F8481807C19F0E3
:101E8000812F0E946811909142019923B9F0F501C8
:101E9000E45BFE4F8181891718F4E80EE1820EC0E1
:101EA000812F0E944B0D8091290190912A0192600F
:101EB00090932A018093290101E001C000E0809104
:101EC000410180934A0157C08091410180934A01AA
:101ED0008281882399F1C40197FE02C080E090E0DE
:101EE0002091290130912A016817790760F4F501E2
:101EF000E45BFE4F80E18083216030932A012093D0
:101F0000290100E006C0346030932A0120932901A2
:101F100001E0F501E45BFE4F8281815082832BC09A
:101F2000A581B0E0A459BE4F8C918F5F8C9342FD88
:101F300009C087FF03C080E180831CC0812F0E94FD
:101F4000280D18C090914501891770F0812F0E94CB
:101F50004B0D8091290190912A01906190932A0163
:101F60008093290101E007C08091290190912A0105
:101F70009460F4CF00E0802F0F90DF91CF911F91FC
:101F80000F91FF90EF90DF90BF90AF909F908F9058
:101F90007F906F905F904F90089590E0FC01349691
:101FA0002DE231E0EE0FFF1FE20FF31FDC01AA0F5D
:101FB000BB1FA20FB31F808191812D913C9111977E
:101FC000821B930B0895009711F0FC010995089569
:101FD00010927401109275011092700110927101AB
:101FE0001092760110927701109272011092730193
:101FF00008958091760190917401892B41F0E091D0
:102000002701F0912801309711F080E00995809127
:10201000770190917501892B41F0E0912701F091B2
:102020002801309711F081E009950895EF920F9300
:102030009E2DE0914B01F0E033E0EE0FFF1F3A954B
:10204000E1F7E45BFE4F43833091780137832770DB
:10205000858366839370220F220F220F922B948325
:10206000832F90E0FC01EE0FFF1FE80FF91FE758E8
:10207000FE4F0295000F007E02833F5F3093780190
:102080000F91EF9008959C016115710521F14F5F4B
:1020900003C04150220F331F37FD06C04423C9F748
:1020A00003C04F5F660F771F77FFFBCF80E090E0A4
:1020B0000BC0880F991F41502617370718F0261BB1
:1020C000370B019676956795442339F097FFF1CF4A
:1020D0008FEF9FEF08958FEF9FEF08956F927F929C
:1020E0008F929F92AF92BF92CF92DF92FF920F9307
:1020F0001F93CF93DF93F82EC82FD0E04E010894A2
:10210000811C911C8E010C5F1F4FBDE2CB2EB1E0F4
:10211000DB2E000F111F0C0D1D1DF801A080B180DA
:10212000FE013596EE0FFF1FEC0DFD1D80819181A4
:10213000B5014CE00E944310BC01F401EE0FFF1FFB
:10214000EC0DFD1D808191814CE00E9443103C010B
:1021500032E0832E912C8C0E9D1EFE013696EE0FE2
:10216000FF1FEC0DFD1D80819181B5014CE00E94A7
:102170004310BC01F401EE0FFF1FEC0DFD1D80812B
:1021800091814CE00E944310EC018F2D0E94CD0FF5
:1021900090937D0180937C01F801808191819C0165
:1021A0002619370930937F0120937E018C1B9D0BEC
:1021B0009093810180938001DF91CF911F910F91C6
:1021C000FF90DF90CF90BF90AF909F908F907F90C7
:1021D0006F900895EF920F93342F902F0E2D422F72
:1021E000232FE92E0E94161090914B01E92FF0E069
:1021F00063E0EE0FFF1F6A95E1F7E45BFE4F848119
:10220000806484839F5F90934B010F91EF900895BA
:10221000EF920F93342F902F0E2D422F232FE92E64
:102220000E94161090914B01E92FF0E073E0EE0F41
:10223000FF1F7A95E1F7E45BFE4F84818068848319
:102240009F5F90934B010F91EF9008951F93CF9351
:10225000DF93182F862FC42F0E946E1080917C016F
:1022600090917D0120917E0130917F01F22FE32F2B
:102270008217930714F4F82FE92F60918001709171
:1022800081014F2F5E2F641775070CF4AB01820F8D
:10229000931F860F971FD0E0D095C195DF4FC817C9
:1022A000D90764F0E12FF0E0A3E0EE0FFF1FAA953D
:1022B000E1F7E45BFE4F248124602483841B950BAB
:1022C000841B950B841B950BDF91CF911F91089573
:1022D000A0E0B0E0EEE6F1E10C94E312082F10E08C
:1022E000E3E0000F111FEA95E1F7D801A45BBE4FB0
:1022F0001796CC901797DD24F601EE0FFF1FEC0D1B
:10230000FD1DE758FE4FE28015968C910E946E10DD
:1023100060917C0170917D0180917E0190917F019F
:10232000E0918001F0918101681779074CF08E17D8
:102330009F0784F4AB019C01BF01C0E0D0E010C056
:102340009F01E617F7074CF0AF019B01BC01C0E00D
:10235000D0E206C0AC019F0101C0AC01C0E0D0E1F9
:10236000640F751F621B730B621B730BCA01821B08
:10237000930B4CE00E944310C80FD91FF801E45B97
:10238000FE4F048110E0007C10700038110581F4CC
:10239000CE01875692402BE28233920708F0C3C0E9
:1023A00087E0C333D80708F4B5C0C253D740B4C0E0
:1023B0007FEFA72E7FE2B72E80E090E32E2D2295AF
:1023C00026952770322F3F5FE12C61E0F62E02C088
:1023D000F694E7942F5F2830D8F39E2C9A94B70197
:1023E000353018F4660F771F04C0373010F076953B
:1023F000679540E00E944310AC0100341105F9F4E8
:10240000F601EE0FFF1FEC0DFD1DE758FE4F80811A
:10241000918128E18030920740F080509841C817A0
:10242000D90768F4C050D04D0AC09C012050384EE6
:102430002C173D0720F48050904D918380839601A6
:10244000220F331FF901EC0DFD1DE758FE4F92815D
:1024500090FF05C09E7F928340E050E006C091FF50
:1024600004C0CA0140E050E002C080E090E0F90101
:10247000EC0DFD1DE758FE4F20813181820F931F27
:10248000C817D90718F082818D7F08C0CA018C0F48
:102490009D1F2817390728F0828182608283D183AB
:1024A000C083E601CC0FDD1FFE01EC0DFD1DE758DA
:1024B000FE4F8081918120E38030920720F0805090
:1024C000904391838083C501B70140E00E9443108F
:1024D000BC01CC0DDD1DC758DE4F8881998140E0DD
:1024E0000E944310492D50E09C014817590708F4F9
:1024F0009A01F601E35DFE4F81898217A1F0218BDD
:102500008091290190912A01846090932A018093FF
:10251000290109C0C0E0D0E0BBE9AB2EB1E2BB2E7F
:102520008BE991E24BCFCDB7DEB7EBE00C94FF1215
:10253000E82FF0E083E0EE0FFF1F8A95E1F7E45B00
:10254000FE4F878190E0FC01EE0FFF1FE80FF91F9F
:10255000E758FE4F828181608283089597FB092EA0
:1025600007260AD077FD04D05ED006D000201AF4EA
:10257000709561957F4F0895F6F7909581959F4FDF
:10258000089597FB092E05260ED057FD04D05FD085
:102590000AD0001C38F450954095309521953F4F56
:1025A0004F4F5F4F0895F6F7909580957095619520
:1025B0007F4F8F4F9F4F08952F923F924F925F9280
:1025C0006F927F928F929F92AF92BF92CF92DF9243
:1025D000EF92FF920F931F93CF93DF93CDB7DEB7A8
:1025E000CA1BDB0B0FB6F894DEBF0FBECDBF09943C
:1025F0002A88398848885F846E847D848C849B8493
:10260000AA84B984C884DF80EE80FD800C811B81A0
:10261000AA81B981CE0FD11D0FB6F894DEBF0FBECF
:10262000CDBFED010895AA1BBB1B51E107C0AA1F36
:10263000BB1FA617B70710F0A61BB70B881F991F63
:102640005A95A9F780959095BC01CD010895A1E216
:102650001A2EAA1BBB1BFD010DC0AA1FBB1FEE1F1C
:10266000FF1FA217B307E407F50720F0A21BB30B67
:10267000E40BF50B661F771F881F991F1A9469F7E3
:1026800060957095809590959B01AC01BD01CF013F
:062690000895F894FFCF4D
:1026960073636F72653A2031333337006C69766540
:0A26A600733A20330032002D0101C9
:00000001FF
