:100000000C946C080C9489080C9489080C94890849
:100010000C9489080C9489080C9489080C9489081C
:100020000C9489080C9489080C9489080C9489080C
:100030000C9489080C9489080C9489080C948908FC
:100040000C9489080C9489080C9489080C948908EC
:100050000C9489080C9489080C9489080C948908DC
:100060000C9489080C9489080C9489080C948908CC
:100070000C9489080C9489080C948908080C205F5A
:100080000000000000000000000000000000202030
:1000900020202020002000000028505000000000F8
:1000A0000000000000002828FC2850FC50500000F0
:1000B000002078A8A0603028A8F02000000048A800
:1000C000B050283454480000000020505078A8A8B0
:1000D000906C000000404080000000000000000024
:1000E0000004081010101010100804000040201028
:1000F000101010101020400000000020A87070A800
:10010000200000000000202020F820202000000017
:1001100000000000000000000040408000000000DF
:1001200000F80000000000000000000000000000D7
:1001300000400000000810101020204040408000C7
:10014000000070888888888888700000000020601F
:10015000202020202070000000007088881020409F
:1001600080F80000000070880830080888700000DF
:100170000000103050509078101800000000F880F7
:1001800080F00808887000000000709080F0888877
:10019000887000000000F89010202020202000002F
:1001A000000070888870888888700000000070885F
:1001B00088887808487000000000000020000000D7
:1001C00000200000000000000020000000202000AF
:1001D0000004081020402010080400000000000067
:1001E000F80000F80000000000402010080408108B
:1001F00020400000000070888810202000200000AF
:100200000000708898A8A8B880780000000020201E
:100210003050507848CC00000000F0484870484802
:1002200048F000000000788880808080887000009E
:100230000000F0484848484848F000000000F848EE
:100240005070504048F800000000F848507050408E
:1002500040E000000000384880809C884830000062
:100260000000CC484878484848CC00000000F820FE
:100270002020202020F8000000007C10101010101A
:100280001090E0000000EC485060505048EC000036
:100290000000E0404040404044FC00000000D8D84E
:1002A000D8D8A8A8A8A800000000DC48686858585A
:1002B00048E80000000070888888888888700000FE
:1002C0000000F0484870404040E0000000007088A6
:1002D000888888E8987018000000F04848705048F6
:1002E00048EC0000000078888060100888F000006A
:1002F0000000F8A820202020207000000000CC483A
:1003000048484848483000000000CC484850503029
:10031000202000000000A8A8A870505050500000F5
:100320000000D8505020205050D800000000D85075
:1003300050202020207000000000F8901020204065
:1003400048F80000003820202020202020203800FD
:1003500000404040202010101008000000701010D5
:10036000101010101010700000205000000000004D
:10037000000000000000000000000000000000FC81
:10038000002000000000000000000000000000004D
:1003900000304838483C00000000C04040704848E9
:1003A000487000000000000000384840403800005D
:1003B0000000180808384848483C000000000000C9
:1003C000003048784038000000001C2020782020B1
:1003D0002078000000000000003C4830407844389D
:1003E0000000C0404070484848EC00000000200079
:1003F000006020202070000000001000003010106D
:10040000101010E00000C040405C507048EC00004C
:100410000000E0202020202020F800000000000044
:1004200000F0A8A8A8A800000000000000F04848BC
:1004300048EC000000000000003048484830000050
:100440000000000000F04848487040E00000000054
:10045000003848484838081C0000000000D86040B8
:1004600040E0000000000000007840300878000004
:100470000000002020702020201800000000000054
:1004800000D84848483C00000000000000EC4850FC
:10049000302000000000000000A8A87050500000AC
:1004A0000000000000D8502050D8000000000000DC
:1004B00000EC4850302020C00000000000781020E0
:1004C00020780000001810101020101010101800D4
:1004D00010101010101010101010101000602020BC
:1004E000201020202020600040A418000000000000
:1004F000000000001010205F00000000000000005D
:1005000000000000000000000000000000000000EB
:1005100000000000000000000000000007000F8045
:100520000F800F800F800F80070007000000000081
:10053000070007000700000000000E380E380E38D4
:100540000E3806300000000000000000000000002F
:10055000000000000000000000000C300C300C30E7
:100560007FFE7FFE0C300C300C300C307FFE7FFEA7
:100570000C300C300C3000000000024002400FF83C
:100580001FF81A401A401FF00FF8025802581FF8BF
:100590001FF00240024000000000000000000E10AA
:1005A0000E300E7000E001C0038007000E700C706A
:1005B0000870000000000000000000000F0019801B
:1005C000198019800F000F080F9819F818F018E01B
:1005D00019F00F980000000000000000070007005D
:1005E00007000E00000000000000000000000000F6
:1005F00000000000000000000000000000F001C04A
:10060000038007000E000E000E000E00070003809E
:1006100001C000F000000000000000000F00038097
:1006200001C000E0007000700070007000E001C0C8
:1006300003800F000000000000000000018011880E
:10064000099007E007E03FFC3FFC07E007E0099066
:100650001188018000000000000000000000000080
:100660000180018001800FF00FF001800180018086
:10067000000000000000000000000000000000007A
:100680000000000000000000000000000000070063
:10069000070007000E00000000000000000000003E
:1006A0000000000000001FF81FF80000000000001C
:1006B000000000000000000000000000000000003A
:1006C0000000000000000000000000000000070023
:1006D0000700070000000000000000000002000604
:1006E000000E001C0038007000E001C0038007000D
:1006F0000E001C0000000000000000000FF01C387D
:100700001C781CF81CF81DB81DB81F381F381E387F
:100710001C380FF000000000000000000180018084
:1007200003801F801F800380038003800380038079
:1007300003801FF000000000000000000FE01C70AC
:100740001C380038007000E001C0038007000E383C
:100750001C381FF800000000000000000FE01C70B3
:100760001C380038007003C003C0007000381C380B
:100770001C700FE0000000000000000000E001E03D
:1007800003E006E00CE018E01FF81FF800E000E0CE
:1007900000E003F800000000000000001FF81C004B
:1007A0001C001C001C001FE01FF0007800381C38E3
:1007B0001C700FE0000000000000000003E00700D4
:1007C0000E001C001C001FF01FF81C381C381C38C1
:1007D0001C380FF000000000000000001FFC1C1C73
:1007E0001C1C1C1C001C0038007000E001C00380B1
:1007F0000380038000000000000000000FF01C38A0
:100800001C381C381F3807E007E01CF81C381C385F
:100810001C380FF000000000000000000FF01C3832
:100820001C381C381C381FF80FF8003800380070CE
:1008300000E007C000000000000000000000000011
:100840000380038003800000000003800380038096
:100850000000000000000000000000000000000098
:100860000380038003800000000003800380038076
:1008700007000000000000000000007000E001C060
:10088000038007000E001C001C000E000700038000
:1008900001C000E000700000000000000000000047
:1008A00000003FFC3FFC000000003FFC3FFC00005C
:1008B000000000000000000000001C000E00070007
:1008C000038001C000E00070007000E001C0038000
:1008D00007000E001C000000000003C00FF01E788F
:1008E00018380038007000E001C001C000000000AE
:1008F00001C001C001C0000000000FF81C1C1C1C3E
:100900001C1C1C1C1CFC1CFC1CFC1CFC1C001C00DF
:100910001C001FF007F800000000000003C007E003
:100920000E701C381C381C381C381FF81C381C383A
:100930001C381C3800000000000000001FF00E38BA
:100940000E380E380E380FF00FF00E380E380E3805
:100950000E381FF0000000000000000007F00E3805
:100960001C381C001C001C001C001C001C001C3837
:100970000E3807F000000000000000001FE00E70BD
:100980000E380E380E380E380E380E380E380E3837
:100990000E701FE000000000000000001FF80E189D
:1009A0000E080E000E300FF00FF00E300E000E0885
:1009B0000E181FF800000000000000001FF80E18BD
:1009C0000E080E000E300FF00FF00E300E000E006D
:1009D0000E001F00000000000000000007F00E38AD
:1009E0001C381C381C001C001C001CF81C381C384F
:1009F0000E3807F800000000000000001C701C709A
:100A00001C701C701C701FF01FF01C701C701C7080
:100A10001C701C7000000000000000000FE003804C
:100A200003800380038003800380038003800380AE
:100A300003800FE0000000000000000001FC0070D7
:100A4000007000700070007000703870387038707E
:100A500038700FE000000000000000001E380E3863
:100A60000E700EE00FC00F800F800FC00EE00E70F2
:100A70000E381E3800000000000000001F000E00AD
:100A80000E000E000E000E000E000E000E080E18D6
:100A90000E381FF800000000000000001C1C1E3C67
:100AA0001F7C1FFC1FFC1DDC1C9C1C1C1C1C1C1C1C
:100AB0001C1C1C1C00000000000000001C1C1C1C56
:100AC0001E1C1F1C1F9C1DDC1CFC1C7C1C3C1C1CBD
:100AD0001C1C1C1C000000000000000003E007F0CC
:100AE0000E381C1C1C1C1C1C1C1C1C1C1C1C0E382A
:100AF00007F003E000000000000000001FF00E38C7
:100B00000E380E380E380FF00FF00E000E000E00EB
:100B10000E001F00000000000000000003E00F783E
:100B20000E381C1C1C1C1C1C1C1C1C7C1CFC0FF8E8
:100B30000FF8003800FC0000000000001FF00E3825
:100B40000E380E380E380FF00FF00E700E380E38CB
:100B50000E381E3800000000000000000FF01C38A6
:100B60001C381C381C000FE007F000381C381C38FB
:100B70001C380FF000000000000000001FFC19CC22
:100B800011C401C001C001C001C001C001C001C049
:100B900001C007F000000000000000001C701C7085
:100BA0001C701C701C701C701C701C701C701C70E5
:100BB0001C700FE000000000000000001C701C70A2
:100BC0001C701C701C701C701C701C701C700EE063
:100BD00007C0038000000000000000001C1C1C1C5B
:100BE0001C1C1C1C1C1C1C9C1C9C1C9C0FF80FF827
:100BF0000770077000000000000000001C701C70EF
:100C00001C700EE007C00380038007C00EE01C705C
:100C10001C701C7000000000000000001C701C70A4
:100C20001C701C701C700EE007C0038003800380E2
:100C300003800FE000000000000000001FF81C38D7
:100C40001838107000E001C0038007000E081C185F
:100C50001C381FF8000000000000000007F007002B
:100C6000070007000700070007000700070007004C
:100C7000070007F00000000000000000100018004E
:100C80001C000E000700038001C000E00070003867
:100C9000001C0007000000000000000007F00070CA
:100CA00000700070007000700070007000700070C4
:100CB000007007F0000000000000018003C007E0A2
:100CC0000E701C3800000000000000000000000052
:100CD0000000000000000000000000000000000014
:100CE0000000000000000000000000000000000004
:100CF000000000007FFF7FFF000000001C001C00C0
:100D000007000700000000000000000000000000D5
:100D100000000000000000000000000000000000D3
:100D2000000000000FE0007000700FF01C701C70DD
:100D30001C700FD800000000000000001E000E0014
:100D40000E000E000FF00E380E380E380E380E382A
:100D50000E381BF000000000000000000000000042
:100D6000000000000FE01C701C701C001C001C70B8
:100D70001C700FE0000000000000000000F8007090
:100D8000007000700FF01C701C701C701C701C70C8
:100D90001C700FD8000000000000000000000000E0
:100DA000000000000FE01C701C701FF01C001C7085
:100DB0001C700FE0000000000000000003E007705E
:100DC0000770070007001FE01FE00700070007008B
:100DD00007001FC00000000000000000000000002D
:100DE000000000000FD81C701C701C701C700FF0ED
:100DF00007F000701C700FE0000000001E000E00E5
:100E00000E000E000EF00F380F380E380E380E3868
:100E10000E381E38000000000000000001C001C0B4
:100E200001C000000FC001C001C001C001C001C06D
:100E300001C00FF80000000000000000007000700A
:100E40000070000003F0007000700070007000700F
:100E500000701C700CF007E0000000001E000E0087
:100E60000E000E000E380E700EE00FC00EE00E7079
:100E70000E381E3800000000000000000FC001C046
:100E800001C001C001C001C001C001C001C001C05A
:100E900001C00FF80000000000000000000000008A
:100EA000000000001FF81C9C1C9C1C9C1C9C1C9C93
:100EB0001C9C1C9C000000000000000000000000C2
:100EC000000000001FE01C701C701C701C701C7067
:100ED0001C701C70000000000000000000000000FA
:100EE000000000000FE01C701C701C701C701C7057
:100EF0001C700FE000000000000000000000000077
:100F0000000000001BF00E380E380E380E380E3878
:100F10000FF00E000E001F00000000000000000097
:100F2000000000001FB038E038E038E038E038E07A
:100F30001FE000E000E001F0000000000000000001
:100F4000000000001EF00FF80F380E000E000E001B
:100F50000E001F0000000000000000000000000064
:100F6000000000000FE01C301C300F8003E0187000
:100F700018700FE0000000000000000000000100F9
:100F8000030007001FF007000700070007000770B5
:100F9000077003E0000000000000000000000000F7
:100FA000000000001C701C701C701C701C701C70F9
:100FB0001C700FD8000000000000000000000000BE
:100FC000000000001C701C701C701C701C700EE077
:100FD00007C00380000000000000000000000000C7
:100FE000000000001C1C1C1C1C1C1C9C1C9C0FF8E2
:100FF0000770077000000000000000000000000003
:10100000000000001CE01CE00FC0078007800FC03C
:101010001CE01CE0000000000000000000000000D8
:10102000000000000E380E380E380E380E3807F06B
:1010300003E000E001C01F8000000000000000008D
:10104000000000001FE018E011C0038007000E2020
:101050001C601FE0000000000000000001F8038099
:101060000380038007001C001C000700038003802E
:10107000038001F800000000000001C001C001C0B1
:1010800001C001C001C001C001C001C001C001C058
:1010900001C001C001C00000000000001F8001C0AD
:1010A00001C001C000E00038003800E001C001C00C
:1010B00001C01F8000000000000000001F1C3B9CBE
:1010C00039DC38F8000000000000000000000000DB
:1010D000000000000000000011241FBECFEFD8E088
:1010E000DEBFCDBF11E0A0E0B1E0EEEAF0E202C069
:1010F00005900D92A631B107D9F711E0A6E1B1E054
:1011000001C01D92A233B107E1F70E948B080C9435
:1011100055100C940000CF92DF92EF92FF920F9344
:101120001F93DF93CF93CDB7DEB765970FB6F894D3
:10113000DEBF0FBECDBF81E00E94930B8CE790E035
:101140000E94E60CDE011A96E0E0F1E08CE00190EE
:101150000D928150E1F7DE011196ECE0F1E089E0BB
:1011600001900D928150E1F760E040E00E94320C66
:1011700084EF91E020E931E0F9013197F1F701972F
:10118000D9F78AE0C82ED12CCC0EDD1E00E911E083
:101190007E010894E11CF11C84E660E040E00E94BE
:1011A000D80CC60160E070E040E050E020E030E0A4
:1011B0000E944A0F84EF91E0F8013197F1F701970F
:1011C000D9F7C70166E970E040E050E020E030E088
:1011D0000E944A0F84EF91E0F8013197F1F70197EF
:1011E000D9F78FE760E04AEF0E94D80C85E090E0E5
:1011F00066E470E042E350E024E630E00E94D70E5F
:1012000084EF91E0F8013197F1F70197D9F7C4CF56
:10121000413009F03EC1E0911901F0911A0190911D
:101220002E01813021F48081892B808304C080814C
:10123000909598239083E0911D01F0911E0190817B
:1012400080912401809589238083E0911D01F09194
:101250001E01808190912401892B8083E0911901E6
:10126000F0911A0190912E0167FF04C08081892BB3
:10127000808304C08081909598239083E0911D0124
:10128000F0911E01908180912401809589238083B3
:10129000E0911D01F0911E01808190912401892B24
:1012A0008083772767FD7095E0911901F0911A010D
:1012B00090912E0166FF04C08081892B808304C039
:1012C0008081909598239083E0911D01F0911E01FB
:1012D000908180912401809589238083E0911D0174
:1012E000F0911E01808190912401892B8083E091EF
:1012F0001901F0911A0190912E0165FF04C08081BF
:10130000892B808304C08081909598239083E091FD
:101310001D01F0911E019081809124018095892307
:101320008083E0911D01F0911E0180819091240144
:10133000892B8083E0911901F0911A0190912E017F
:1013400064FF04C08081892B808304C080819095D4
:1013500098239083E0911D01F0911E01908180916E
:101360002401809589238083E0911D01F0911E0165
:10137000808190912401892B8083E0911901F09163
:101380001A0190912E0163FF04C08081892B808314
:1013900004C08081909598239083E0911D01F09185
:1013A0001E01908180912401809589238083E091A2
:1013B0001D01F0911E01808190912401892B808371
:1013C000E0911901F0911A0190912E0162FF04C081
:1013D0008081892B808304C080819095982390839D
:1013E000E0911D01F0911E01908180912401809572
:1013F00089238083E0911D01F0911E0180819091ED
:101400002401892B8083E0911901F0911A019091B8
:101410002E0161FF04C08081892B808304C08081FC
:10142000909598239083E0911D01F0911E01908189
:1014300080912401809589238083E0911D01F091A2
:101440001E01808190912401892B8083E0911901F4
:10145000F0911A0190912E0160FF04C08081892BC8
:10146000808304C08081909598239083E0911D0132
:10147000F0911E01908180912401809589238083C1
:10148000E0911D01F0911E01808190912401892B32
:1014900080830895682F80E041E00E940809089544
:1014A0001F93982F162F81E0692F41E00E940809B1
:1014B00081E0612F41E00E9408091F910895682F83
:1014C00081E041E00E94080908950F931F938B016A
:1014D0000E944A0A812F992787FD9A95602F0E94C2
:1014E000500A1F910F9108959FEF9AB9803131F4FE
:1014F00084B18F6384B987B1836087B908950F93EE
:101500001F93E0911F01F0912001808190911801BB
:10151000892B808380E29EE40197F1F7E0911F011F
:10152000F09120019081809118018095892380831A
:1015300020E63AEEC9010197F1F7E0911F01F09121
:101540002001808190911801892B8083C901019726
:10155000F1F7E0912201F091230190818091170130
:1015600080958923808381EC0E944A0A8FEF0E9434
:101570005F0A83E80E945F0A80E40E945F0A81E1BB
:101580000E944A0A88EE93E020E931E0F9013197A0
:10159000F1F70197D9F78AEC0E944A0A80E70E9486
:1015A0005F0A80E00E945F0A89ED0E945F0A81E085
:1015B0000E945F0A81E10E945F0A89EC0E944A0A48
:1015C00080E90E945F0A89E40E945F0A80E10E942C
:1015D0005F0A88E20E945F0A88E20E945F0A80E157
:1015E0000E945F0A80E00E945F0A86E00E945F0A14
:1015F00088EC90E020E931E0F9013197F1F70197AB
:10160000D9F782EC0E944A0A80E60E945F0A81E7CD
:101610000E945F0A81E00E945F0A8EE00E945F0ADA
:1016200085E00E945F0A82E00E945F0A89E00E94D2
:101630005F0A81E30E945F0A8AE00E945F0A83ECEE
:101640000E944A0A87E60E945F0A80E30E945F0ABE
:1016500081E60E945F0A87E10E945F0A88E40E9497
:101660005F0A87E00E945F0A85E00E945F0A83E3C9
:101670000E945F0A00E41CE9C8010197F1F785EBBD
:101680000E944A0A85E30E945F0A80E20E945F0A84
:1016900085E40E945F0A84EB0E944A0A83E30E9469
:1016A0005F0A85E20E945F0A8CE40E945F0AC8011B
:1016B0000197F1F78AE30E944A0A85E00E945F0AD7
:1016C00089E20E944A0AC8010197F1F78AE20E9462
:1016D0004A0A80E00E945F0A80E00E945F0A80E080
:1016E0000E945F0A8FEA0E945F0A8BE20E944A0A08
:1016F00080E00E945F0A80E00E945F0A80E00E9412
:101700005F0A8BED0E945F0A8CE20E944A0AE09118
:101710002201F0912301808190911701892B808310
:101720001F910F91089580931B0128E230E03093C0
:101730001A012093190182E080932E01399A309387
:101740001E0120931D0181E080932401389A25E237
:1017500030E0309323012093220180E18093170130
:10176000249A3093200120931F0188E08093180170
:10177000239A0E947F0A8FEF80931C0180932B0194
:10178000809330011092310110922F0110922101AB
:101790000895CF92DF92EF92FF920F931F93CF9312
:1017A000DF93EC017B018A01690180911B0181308B
:1017B00059F48BED90E09C012C1B3D0BEB017C015F
:1017C000E41AF50A860169018AE20E944A0A8D2F0D
:1017D000992787FD9A950E945F0A8C2F0E945F0AC5
:1017E000812F992787FD9A950E945F0A802F0E947A
:1017F0005F0A8BE20E944A0A8F2D992787FD9A95EE
:101800000E945F0A8E2D0E945F0A8D2D992787FD09
:101810009A950E945F0A8C2D0E945F0A8CE20E94BA
:101820004A0ADF91CF911F910F91FF90EF90DF90C7
:10183000CF90089580911B01882349F480E090E0C7
:1018400060E070E04FEA50E02BED30E008C080E04F
:1018500090E060E070E04BED50E02FEA30E00E9455
:10186000C90B08950F931F93CF93DF93142F062F67
:10187000029506950770887F082B70E06C71707078
:1018800053E0660F771F5A95E1F716951695169552
:10189000162BE0912201F091230190818091170194
:1018A0008095892380830E941A0CC0E0D0E081E0FB
:1018B000602F41E00E94080981E0612F41E00E9411
:1018C0000809219687E9C034D80789F7E0912201F9
:1018D000F0912301808190911701892B8083DF9102
:1018E000CF911F910F910895CF93DF93E091220143
:1018F000F091230190818091170180958923808345
:101900000E941A0CC0E0D0E081E060E041E00E945B
:10191000080981E060E041E00E940809219687E91A
:10192000C034D80789F7E0912201F091230180812A
:1019300090911701892B8083DF91CF910895887F43
:10194000262F30E02C71307073E0220F331F7A9510
:10195000E1F7469546954695422B629566956770E8
:10196000862B642F0E94500A0895AC019B01E091E0
:101970002201F091230190818091170180958923A4
:101980008083CA010E94C90B80911C0160912B01C8
:10199000409130010E949F0CE0912201F0912301BF
:1019A000808190911701892B80830E941A0C0895E1
:1019B00080931C0160932B01409330010895809324
:1019C000310160932F01409321010895FC01909310
:1019D000260180932501849180932701319684917B
:1019E0008093280131968491809329013196E49166
:1019F000E0932A0108954F925F926F927F928F92A7
:101A00009F92AF92BF92CF92DF92EF92FF920F938D
:101A10001F93CF93DF933B012A01E0912201F091C4
:101A200023012081909117019095922390839091AA
:101A30001B01C82FD0E0992309F067C0409127010E
:101A400050E041505040460F571F2091280130E090
:101A500021503040240D351DCB01B2010E94C90B2D
:101A60008091270186958695869520912801829FF1
:101A7000C001112420912901C21BD1098C9F800132
:101A80008D9F100D9C9F100D11240C5F1F4FEE2495
:101A9000FF242DC0E0912501F0912601E00FF11FF8
:101AA000E491C7E0D0E0CE2EDD24C6010C2E02C0AA
:101AB000959587950A94E2F780FF07C080911C01F5
:101AC00060912B014091300106C0809131016091FD
:101AD0002F01409121010E949F0C21972FEFCF3FB2
:101AE000D20719F70F5F1F4F0894E11CF11C80917A
:101AF000270186958695869520912801829FC001B1
:101B00001124E816F90634F289C0809127018695E0
:101B10008695869520912801829FC00111242091ED
:101B20002901C21BD1098C9F60018D9FD00C9C9F05
:101B3000D00C112484E090E0C80ED91EAA24BB2446
:101B400056C0C5010E94F10F9B01240D351D50E0C8
:101B500041505040460D571DC301B9010E94C90BA9
:101B600080912701869586958695082F10E0015073
:101B700010407801EC0CFD1C2CC0E0912501F09187
:101B80002601EE0DFF1DE491C0E0D0E08E2E9924D9
:101B9000C4010C2E02C0959587950A94E2F780FF48
:101BA00007C080911C0160912B014091300106C05B
:101BB0008091310160912F01409121010E949F0C81
:101BC0002196C830D10521F7015010400894E10852
:101BD000F1089FEF0F3F190781F680912701869545
:101BE0008695869590E0C80ED91EA80EB91E409124
:101BF0002701842F869586958695682F70E08091C1
:101C0000280190E09C01629FC001639F900D729F2C
:101C1000900D1124A816B9060CF493CFE09122017F
:101C2000F0912301808190911701892B80830E947C
:101C30001A0CDF91CF911F910F91FF90EF90DF90E1
:101C4000CF90BF90AF909F908F907F906F905F905C
:101C50004F900895CF92DF92EF92FF920F931F93D0
:101C6000CF93DF93DC017B01EA01A90180912B0175
:101C7000C82EC294C694F7E0CF2220911C01287F81
:101C8000C22A90E08C719070E3E0880F991FEA956A
:101C9000E1F7D0903001D694D694D694D82AE0912A
:101CA0002201F09123019081809117018095892371
:101CB00080834436510559F48E010F5F1F4FCA0FC0
:101CC000DB1FCD01AE0197010E94C90B0BC0453649
:101CD000510539F49E01260F371FCD01AD010E9439
:101CE000C90B8E01C0E0D0E005C08C2D6D2D0E9487
:101CF000500A2196C017D107C4F3E0912201F09158
:101D00002301808190911701892B80830E941A0CF6
:101D1000DF91CF911F910F91FF90EF90DF90CF90C7
:101D20000895AF92BF92CF92DF92EF92FF920F93FE
:101D30001F93CF93DF93EC017B015A016901481790
:101D4000590714F45E01EA01CE14DF041CF4C60145
:101D500067017C0185010C1B1D0BCE01B701A80199
:101D600024E630E00E942A0ECE01B601A80124E646
:101D700030E00E942A0E86010E191F09CE01B7011C
:101D8000A80125E630E00E942A0EC501B701A8018E
:101D900025E630E00E942A0EDF91CF911F910F912E
:101DA000FF90EF90DF90CF90BF90AF9008958F920B
:101DB0009F92AF92BF92CF92DF92EF92FF920F93DA
:101DC0001F93CF93DF934C015B017A0169014817A0
:101DD000590714F474014A01CA14DB041CF4C60147
:101DE00065015C0180911B01882369F0C701881996
:101DF000990962E070E00E94F10F8B01C0E0D0E031
:101E0000CA18DB0837C0C6018A199B0962E070E076
:101E10000E94F10F8B01C0E0D0E0E818F90813C070
:101E2000BE016A0D7B1DC401A70124E630E00E94BB
:101E30002A0EB6016C1B7D0BC401A70124E630E01D
:101E40000E942A0E21960C171D0754F716C0CE01CA
:101E5000880D991DB501A60125E630E00E942A0EE5
:101E6000C7018C1B9D0BB501A60125E630E00E9441
:101E70002A0E21960C171D0754F7DF91CF911F9161
:101E80000F91FF90EF90DF90CF90BF90AF909F9019
:101E90008F9008958F929F92AF92BF92CF92DF92D0
:101EA000EF92FF920F931F93CF93DF936C01EB019F
:101EB0004A015901DC010D900020E9F77D010894E9
:101EC000E108F108E81AF90A80911B01882359F505
:101ED000B7E26F307B0779F48091270190E0FC0135
:101EE000EE9DC001EF9D900DFE9D900D1124C0EB65
:101EF000D0E0C81BD90BF7E2CE30DF0709F047C0AE
:101F00008091270190E08E9D90018F9D300D9E9DC8
:101F1000300D1124442737FD4095542F60EB70E0BD
:101F200080E090E029C027E26F30720779F4809159
:101F3000270190E0DC01AE9DC001AF9D900DBE9DDC
:101F4000900D1124CCEDD0E0C81BD90BB7E2CE30F8
:101F5000DB07E9F48091270190E08E9D90018F9D31
:101F6000300D9E9D300D1124442737FD4095542F90
:101F70006CED70E080E090E0621B730B840B950BBE
:101F800022E030E040E050E00E940410E90100E06F
:101F900010E017C0A114B10491F48091270190E0E2
:101FA000089FB001099F700D189F700D11246C0FD0
:101FB0007D1FF60181916F01A4010E94FB0C0F5F50
:101FC0001F4F0E151F0534F3DF91CF911F910F9115
:101FD000FF90EF90DF90CF90BF90AF909F908F9049
:101FE000089597FB092E07260AD077FD04D027D045
:101FF00006D000201AF4709561957F4F0895F6F78A
:10200000909581959F4F089597FB092E05260ED038
:1020100057FD04D028D00AD0001C38F450954095C4
:10202000309521953F4F4F4F5F4F0895F6F79095AC
:102030008095709561957F4F8F4F9F4F0895AA1B94
:10204000BB1B51E107C0AA1FBB1FA617B70710F0A3
:10205000A61BB70B881F991F5A95A9F780959095D5
:10206000BC01CD010895A1E21A2EAA1BBB1BFD01E4
:102070000DC0AA1FBB1FEE1FFF1FA217B307E40767
:10208000F50720F0A21BB30BE40BF50B661F771FBF
:10209000881F991F1A9469F760957095809590959F
:0E20A0009B01AC01BD01CF010895F894FFCF64
:1020AE0073636F72653A2031333337006C6976652E
:0620BE00733A203300001C
:00000001FF
