:100000000C94290A0C943E0A0C943E0A0C943E0A65
:100010000C943E0A0C943E0A0C943E0A0C943E0A40
:100020000C943E0A0C943E0A0C943E0A0C943E0A30
:100030000C943E0A0C943E0A0C943E0A0C943E0A20
:100040000C943E0A0C943E0A0C943E0A0C943E0A10
:100050000C943E0A0C943E0A0C943E0A0C943E0A00
:100060000C943E0A0C943E0A0C943E0A0C943E0AF0
:100070000C943E0A0C943E0A0C943E0A05A84CCD02
:10008000B2D44EB93836A9020C50B9918688083CD2
:10009000A6AAAA2ABE000000803F1010205F000020
:1000A0000000000000000000000000000000000050
:1000B0000000000000000000000000000000000040
:1000C000000007000F800F800F800F800F80070057
:1000D0000700000000000700070007000000000004
:1000E0000E380E380E380E380630000000000000C2
:1000F0000000000000000000000000000000000000
:100100000C300C300C307FFE7FFE0C300C300C308D
:100110000C307FFE7FFE0C300C300C3000000000F5
:10012000024002400FF81FF81A401A401FF00FF863
:10013000025802581FF81FF0024002400000000061
:10014000000000000E100E300E7000E001C00380B1
:1001500007000E700C700870000000000000000026
:1001600000000F001980198019800F000F080F98E8
:1001700019F818F018E019F00F98000000000000BE
:1001800000000700070007000E000000000000004C
:10019000000000000000000000000000000000005F
:1001A000000000F001C0038007000E000E000E00EA
:1001B0000E000700038001C000F0000000000000F6
:1001C00000000F00038001C000E0007000700070AC
:1001D000007000E001C003800F000000000000007C
:1001E000000001801188099007E007E03FFC3FFC18
:1001F00007E007E00990118801800000000000007E
:100200000000000000000180018001800FF00FF06D
:10021000018001800180000000000000000000005B
:1002200000000000000000000000000000000000CE
:10023000000000000700070007000E00000000009B
:100240000000000000000000000000001FF81FF880
:10025000000000000000000000000000000000009E
:10026000000000000000000000000000000000008E
:100270000000000007000700070000000000000069
:10028000000000020006000E001C0038007000E0B4
:1002900001C0038007000E001C00000000000000E9
:1002A00000000FF01C381C781CF81CF81DB81DB895
:1002B0001F381F381E381C380FF0000000000000E7
:1002C00000000180018003801F801F800380038065
:1002D00003800380038003801FF000000000000003
:1002E00000000FE01C701C380038007000E001C0F6
:1002F000038007000E381C381FF8000000000000C3
:1003000000000FE01C701C380038007003C003C0F0
:10031000007000381C381C700FE000000000000066
:10032000000000E001E003E006E00CE018E01FF848
:100330001FF800E000E000E003F80000000000000B
:1003400000001FF81C001C001C001C001FE01FF018
:10035000007800381C381C700FE00000000000001E
:10036000000003E007000E001C001C001FF01FF837
:100370001C381C381C381C380FF00000000000002E
:1003800000001FFC1C1C1C1C1C1C001C00380070E6
:1003900000E001C003800380038000000000000033
:1003A00000000FF01C381C381C381F3807E007E02D
:1003B0001CF81C381C381C380FF00000000000002E
:1003C00000000FF01C381C381C381C381FF80FF8C0
:1003D00000380038007000E007C000000000000096
:1003E0000000000000000380038003800000000084
:1003F0000380038003800000000000000000000074
:100400000000000000000380038003800000000063
:10041000038003800380070000000000000000004C
:10042000007000E001C0038007000E001C001C00EB
:100430000E000700038001C000E000700000000013
:1004400000000000000000003FFC3FFC0000000036
:100450003FFC3FFC00000000000000000000000026
:100460001C000E000700038001C000E00070007057
:1004700000E001C0038007000E001C000000000027
:1004800003C00FF01E7818380038007000E001C07B
:1004900001C00000000001C001C001C00000000058
:1004A0000FF81C1C1C1C1C1C1C1C1CFC1CFC1CFC1D
:1004B0001CFC1C001C001C001FF007F800000000C2
:1004C000000003C007E00E701C381C381C381C38B4
:1004D0001FF81C381C381C381C38000000000000B5
:1004E00000001FF00E380E380E380E380FF00FF0E7
:1004F0000E380E380E380E381FF0000000000000D5
:10050000000007F00E381C381C001C001C001C00EA
:100510001C001C001C380E3807F000000000000012
:1005200000001FE00E700E380E380E380E380E38F0
:100530000E380E380E380E701FE00000000000006C
:1005400000001FF80E180E080E000E300FF00FF00E
:100550000E300E000E080E181FF8000000000000FC
:1005600000001FF80E180E080E000E300FF00FF0EE
:100570000E300E000E000E001F00000000000000F4
:10058000000007F00E381C381C381C001C001C0032
:100590001CF81C381C380E3807F80000000000005A
:1005A00000001C701C701C701C701C701FF01FF071
:1005B0001C701C701C701C701C700000000000007F
:1005C00000000FE00380038003800380038003802A
:1005D00003800380038003800FE000000000000020
:1005E000000001FC0070007000700070007000706E
:1005F00038703870387038700FE00000000000006C
:1006000000001E380E380E700EE00FC00F800F80F5
:100610000FC00EE00E700E381E3800000000000003
:1006200000001F000E000E000E000E000E000E0057
:100630000E000E080E180E381FF800000000000013
:1006400000001C1C1E3C1F7C1FFC1FFC1DDC1C9C96
:100650001C1C1C1C1C1C1C1C1C1C00000000000082
:1006600000001C1C1C1C1E1C1F1C1F9C1DDC1CFCD9
:100670001C7C1C3C1C1C1C1C1C1C000000000000E2
:10068000000003E007F00E381C1C1C1C1C1C1C1C6A
:100690001C1C1C1C0E3807F003E0000000000000CA
:1006A00000001FF00E380E380E380E380FF00FF025
:1006B0000E000E000E000E001F00000000000000E3
:1006C000000003E00F780E381C1C1C1C1C1C1C1C9A
:1006D0001C7C1CFC0FF80FF8003800FC0000000028
:1006E00000001FF00E380E380E380E380FF00FF0E5
:1006F0000E700E380E380E381E3800000000000054
:1007000000000FF01C381C381C381C000FE007F0EC
:1007100000381C381C381C380FF0000000000000A6
:1007200000001FFC19CC11C401C001C001C001C0F0
:1007300001C001C001C001C007F0000000000000BE
:1007400000001C701C701C701C701C701C701C70D5
:100750001C701C701C701C700FE00000000000007A
:1007600000001C701C701C701C701C701C701C70B5
:100770001C701C700EE007C0038000000000000029
:1007800000001C1C1C1C1C1C1C1C1C1C1C9C1C9CE1
:100790001C9C0FF80FF807700770000000000000A5
:1007A00000001C701C701C700EE007C003800380EA
:1007B00007C00EE01C701C701C70000000000000E0
:1007C00000001C701C701C701C701C700EE007C0B8
:1007D00003800380038003800FE00000000000001E
:1007E00000001FF81C381838107000E001C00380AA
:1007F00007000E081C181C381FF80000000000003D
:10080000000007F0070007000700070007000700C7
:10081000070007000700070007F0000000000000C5
:100820000000100018001C000E000700038001C02B
:1008300000E000700038001C00070000000000000D
:10084000000007F000700070007000700070007011
:10085000007000700070007007F0000000000000E1
:10086000018003C007E00E701C380000000000008B
:100870000000000000000000000000000000000078
:100880000000000000000000000000000000000068
:10089000000000000000000000007FFF7FFF00005C
:1008A00000001C001C000700070000000000000002
:1008B0000000000000000000000000000000000038
:1008C000000000000000000000000FE00070007059
:1008D0000FF01C701C701C700FD80000000000008E
:1008E00000001E000E000E000E000FF00E380E3835
:1008F0000E380E380E380E381BF0000000000000D5
:10090000000000000000000000000FE01C701C70E0
:100910001C001C001C701C700FE000000000000098
:10092000000000F80070007000700FF01C701C7068
:100930001C701C701C701C700FD8000000000000A0
:10094000000000000000000000000FE01C701C70A0
:100950001FF01C001C701C700FE000000000000065
:10096000000003E007700770070007001FE01FE0AA
:1009700007000700070007001FC00000000000007C
:10098000000000000000000000000FD81C701C7068
:100990001C701C700FF007F000701C700FE000005E
:1009A00000001E000E000E000E000EF00F380F3873
:1009B0000E380E380E380E381E38000000000000C9
:1009C000000001C001C001C000000FC001C001C093
:1009D00001C001C001C001C00FF80000000000000C
:1009E0000000007000700070000003F000700070E4
:1009F00000700070007000701C700CF007E00000C8
:100A000000001E000E000E000E000E380E700EE0EC
:100A10000FC00EE00E700E381E38000000000000FF
:100A200000000FC001C001C001C001C001C001C071
:100A300001C001C001C001C00FF8000000000000AB
:100A4000000000000000000000001FF81C9C1C9C1F
:100A50001C9C1C9C1C9C1C9C1C9C000000000000FE
:100A6000000000000000000000001FE01C701C706F
:100A70001C701C701C701C701C70000000000000BA
:100A8000000000000000000000000FE01C701C705F
:100A90001C701C701C701C700FE000000000000037
:100AA000000000000000000000001BF00E380E38AF
:100AB0000E380E380E380FF00E000E001F0000002A
:100AC000000000000000000000001FB038E038E027
:100AD00038E038E038E01FE000E000E001F000001E
:100AE000000000000000000000001EF00FF80F38AA
:100AF0000E000E000E000E001F000000000000009F
:100B0000000000000000000000000FE01C301C305E
:100B10000F8003E0187018700FE000000000000064
:100B2000000000000100030007001FF0070007009D
:100B3000070007000770077003E0000000000000D6
:100B4000000000000000000000001C701C701C7001
:100B50001C701C701C701C700FD80000000000007E
:100B6000000000000000000000001C701C701C70E1
:100B70001C701C700EE007C0038000000000000025
:100B8000000000000000000000001C1C1C1C1C1CBD
:100B90001C9C1C9C0FF807700770000000000000F0
:100BA000000000000000000000001CE01CE00FC07E
:100BB000078007800FC01CE01CE000000000000060
:100BC000000000000000000000000E380E380E3853
:100BD0000E380E3807F003E000E001C01F8000006F
:100BE000000000000000000000001FE018E011C03D
:100BF000038007000E201C601FE0000000000000C2
:100C0000000001F803800380038007001C001C0023
:100C1000070003800380038001F80000000000004B
:100C200001C001C001C001C001C001C001C001C0BC
:100C300001C001C001C001C001C001C0000000002E
:100C400000001F8001C001C001C000E00038003872
:100C500000E001C001C001C01F80000000000000D2
:100C600000001F1C3B9C39DC38F80000000000002D
:100C70000000000000000000000000000000203222
:100C8000300A000000000000000000FFFE0001FF2D
:100C9000FF0003FFFF8001FFFF600CFFFEF01E005E
:100CA00001F83F0001F83F0001F83F0001F83F0064
:100CB00001F83F0001F83F0001F83F0001F83F0054
:100CC00001F83F0001F83F0001F83F0001F83F0044
:100CD00001F83F0001F83E000078380000182000BD
:100CE00000080000000020000000380000183E004E
:100CF00000783F0001F83F0001F83F0001F83F0095
:100D000001F83F0001F83F0001F83F0001F83F0003
:100D100001F83F0001F83F0001F83F0001F83F00F3
:100D200001F83F0001F83F0001F81E0000F00CFF41
:100D3000FE6001FFFF0003FFFF8001FFFF0000FFD7
:100D4000FE000000000000000000000000000000A5
:100D50000000000000000000000000000000000093
:100D60000060000000F0000001F8000001F8000041
:100D700001F8000001F8000001F8000001F800008F
:100D800001F8000001F8000001F8000001F800007F
:100D900001F8000001F8000001F8000001F800006F
:100DA00000780000001800000008000000000000AB
:100DB00000000000001800000078000001F80000AA
:100DC00001F8000001F8000001F8000001F800003F
:100DD00001F8000001F8000001F8000001F800002F
:100DE00001F8000001F8000001F8000001F800001F
:100DF00001F8000000F000000060000000000000AA
:100E000000000000000000000000000000000000E2
:100E10000000000000000000000000FFFE0001FFD5
:100E2000FF0003FFFF8001FFFF6000FFFEF00000F6
:100E300001F8000001F8000001F8000001F80000CE
:100E400001F8000001F8000001F8000001F80000BE
:100E500001F8000001F8000001F8000001F80000AE
:100E600001F8000001F80000007801FFFE1803FF00
:100E7000FF880FFFFFE027FFFFC039FFFF003E00A4
:100E800000003F0000003F0000003F0000003F0066
:100E900000003F0000003F0000003F0000003F0056
:100EA00000003F0000003F0000003F0000003F0046
:100EB00000003F0000003F0000001E0000000CFF8B
:100EC000FE0001FFFF0003FFFF8001FFFF0000FFA6
:100ED000FE00000000000000000000000000000014
:100EE000000000FFFE0001FFFF0003FFFF8001FF85
:100EF000FF6000FFFEF0000001F8000001F80000B4
:100F000001F8000001F8000001F8000001F80000FD
:100F100001F8000001F8000001F8000001F80000ED
:100F200001F8000001F8000001F8000001F80000DD
:100F3000007801FFFE1803FFFF880FFFFFE007FFA7
:100F4000FFC001FFFF1800000078000001F800005A
:100F500001F8000001F8000001F8000001F80000AD
:100F600001F8000001F8000001F8000001F800009D
:100F700001F8000001F8000001F8000001F800008D
:100F800001F8000000F000FFFE6001FFFF0003FF1A
:100F9000FF8001FFFF0000FFFE00000000000000D6
:100FA0000000000000000000000000000000000041
:100FB000000000000000000000600C0000F01E00B7
:100FC00001F83F0001F83F0001F83F0001F83F0041
:100FD00001F83F0001F83F0001F83F0001F83F0031
:100FE00001F83F0001F83F0001F83F0001F83F0021
:100FF00001F83F0001F83E00007839FFFE1823FF9A
:10100000FF880FFFFFE007FFFFC001FFFF18000090
:101010000078000001F8000001F8000001F800006D
:1010200001F8000001F8000001F8000001F80000DC
:1010300001F8000001F8000001F8000001F80000CC
:1010400001F8000001F8000001F8000000F00000C5
:101050000060000000000000000000000000000030
:101060000000000000000000000000000000000080
:10107000000000FFFE0001FFFF0003FFFF8001FFF3
:10108000FF000CFFFE001E0000003F0000003F00BC
:1010900000003F0000003F0000003F0000003F0054
:1010A00000003F0000003F0000003F0000003F0044
:1010B00000003F0000003F0000003F0000003E0035
:1010C000000039FFFE0023FFFF800FFFFFE007FF56
:1010D000FFC001FFFF1800000078000001F80000C9
:1010E00001F8000001F8000001F8000001F800001C
:1010F00001F8000001F8000001F8000001F800000C
:1011000001F8000001F8000001F8000001F80000FB
:1011100001F8000000F000FFFE6001FFFF0003FF88
:10112000FF8001FFFF0000FFFE0000000000000044
:101130000000000000000000000000FFFE0001FFB2
:10114000FF0003FFFF8001FFFF000CFFFE001E00F9
:1011500000003F0000003F0000003F0000003F0093
:1011600000003F0000003F0000003F0000003F0083
:1011700000003F0000003F0000003F0000003F0073
:1011800000003F0000003E00000039FFFE0023FF8A
:10119000FF800FFFFFE027FFFFC039FFFF183E0071
:1011A00000783F0001F83F0001F83F0001F83F00E0
:1011B00001F83F0001F83F0001F83F0001F83F004F
:1011C00001F83F0001F83F0001F83F0001F83F003F
:1011D00001F83F0001F83F0001F81E0000F00CFF8D
:1011E000FE6001FFFF0003FFFF8001FFFF0000FF23
:1011F000FE000000000000000000000000000000F1
:10120000000000FFFE0001FFFF0003FFFF8001FF61
:10121000FF6000FFFEF0000001F8000001F8000090
:1012200001F8000001F8000001F8000001F80000DA
:1012300001F8000001F8000001F8000001F80000CA
:1012400001F8000001F8000001F8000001F80000BA
:1012500000780000001800000008000000000000F6
:1012600000000000001800000078000001F80000F5
:1012700001F8000001F8000001F8000001F800008A
:1012800001F8000001F8000001F8000001F800007A
:1012900001F8000001F8000001F8000001F800006A
:1012A00001F8000000F000000060000000000000F5
:1012B000000000000000000000000000000000002E
:1012C0000000000000000000000000FFFE0001FF21
:1012D000FF0003FFFF8001FFFF600CFFFEF01E0018
:1012E00001F83F0001F83F0001F83F0001F83F001E
:1012F00001F83F0001F83F0001F83F0001F83F000E
:1013000001F83F0001F83F0001F83F0001F83F00FD
:1013100001F83F0001F83E00007839FFFE1823FF76
:10132000FF880FFFFFE027FFFFC039FFFF183E00D7
:1013300000783F0001F83F0001F83F0001F83F004E
:1013400001F83F0001F83F0001F83F0001F83F00BD
:1013500001F83F0001F83F0001F83F0001F83F00AD
:1013600001F83F0001F83F0001F81E0000F00CFFFB
:10137000FE6001FFFF0003FFFF8001FFFF0000FF91
:10138000FE0000000000000000000000000000005F
:10139000000000FFFE0001FFFF0003FFFF8001FFD0
:1013A000FF600CFFFEF01E0001F83F0001F83F0057
:1013B00001F83F0001F83F0001F83F0001F83F004D
:1013C00001F83F0001F83F0001F83F0001F83F003D
:1013D00001F83F0001F83F0001F83F0001F83E002E
:1013E000007839FFFE1823FFFF880FFFFFE007FF9B
:1013F000FFC001FFFF1800000078000001F80000A6
:1014000001F8000001F8000001F8000001F80000F8
:1014100001F8000001F8000001F8000001F80000E8
:1014200001F8000001F8000001F8000001F80000D8
:1014300001F8000000F000FFFE6001FFFF0003FF65
:10144000FF8001FFFF0000FFFE0000000000000021
:10145000000011241FBECFEFD8E0DEBFCDBF16E0E5
:10146000A0E0B1E0ECE9F1E502C005900D92A638EC
:10147000B107D9F70E94400A0C94CC280C940000C4
:10148000CF92DF92EF92FF920F931F93DF93CF9350
:10149000CDB7DEB7A7970FB6F894DEBF0FBECDBFAE
:1014A0008E010F5F1F4FC8010E942A0CC80166E021
:1014B00071E00E944A17C80160E00E94930C84EF1B
:1014C00091E020E931E0F9013197F1F70197D9F77F
:1014D000CE01019660E040E020E00E94D91084EF48
:1014E00091E020E931E0F9013197F1F70197D9F75F
:1014F0006E010894C11CD11C80E9E82E81E0F82E11
:10150000C60160E071E042E350E022E330E00AE52A
:1015100010E00E94A01C88EE93E0F7013197F1F7EC
:101520000197D9F7EDCFDC01213009F058C1589669
:10153000ED91FC9159975F969C915F97613021F4F2
:101540008081892B808304C080819095982390832B
:101550005A96ED91FC915B97908190968C91909723
:101560008095892380835A96ED91FC915B978081C9
:1015700090969C919097892B80835896ED91FC9141
:1015800059975F969C915F9747FF04C08081892B94
:10159000808304C080819095982390835A96ED9122
:1015A000FC915B97908190968C9190978095892380
:1015B00080835A96ED91FC915B97808190969C91E7
:1015C0009097892B8083552747FD50955896ED912C
:1015D000FC9159975F969C915F9746FF04C080816C
:1015E000892B808304C080819095982390835A969C
:1015F000ED91FC915B97908190968C91909780955E
:10160000892380835A96ED91FC915B978081909617
:101610009C919097892B80835896ED91FC915997D6
:101620005F969C915F9745FF04C08081892B8083E2
:1016300004C080819095982390835A96ED91FC91F7
:101640005B97908190968C91909780958923808369
:101650005A96ED91FC915B97808190969C91909722
:10166000892B80835896ED91FC9159975F969C91B8
:101670005F9744FF04C08081892B808304C08081F0
:101680009095982390835A96ED91FC915B97908169
:1016900090968C9190978095892380835A96ED91AE
:1016A000FC915B97808190969C919097892B808389
:1016B0005896ED91FC9159975F969C915F9743FFE7
:1016C00004C08081892B808304C0808190959823F9
:1016D00090835A96ED91FC915B97908190968C91B6
:1016E00090978095892380835A96ED91FC915B9722
:1016F000808190969C919097892B80835896ED914C
:10170000FC9159975F969C915F9742FF04C080813E
:10171000892B808304C080819095982390835A966A
:10172000ED91FC915B97908190968C91909780952C
:10173000892380835A96ED91FC915B9780819096E6
:101740009C919097892B80835896ED91FC915997A5
:101750005F969C915F9741FF04C08081892B8083B5
:1017600004C080819095982390835A96ED91FC91C6
:101770005B97908190968C91909780958923808338
:101780005A96ED91FC915B97808190969C919097F1
:10179000892B80835896ED91FC9159975F969C9187
:1017A0005F9740FF04C08081892B808304C08081C3
:1017B0009095982390835A96ED91FC915B97908138
:1017C00090968C9190978095892380835A96ED917D
:1017D000FC915B97808190969C91892B80830895E2
:1017E0008FEF8AB9603131F484B18F6384B987B1E6
:1017F000836087B90895FC018FEA90E0A0E0B0E033
:1018000087839087A187B2878BED90E0A0E0B0E05E
:1018100083879487A587B68791E0908B84E0818B3E
:1018200087E0878728E230E0318F208F82E0878F42
:10183000399A338F228F90A3389A25E230E0358B86
:10184000248B80E1858F249A378B268B88E0868FC6
:10185000239A0895FC018FEA90E0A0E0B0E087832E
:101860009087A187B2878BED90E0A0E0B0E08387FE
:101870009487A587B68791E0908B84E0818B87E081
:10188000878728E230E0318F208F82E0878F399A76
:10189000338F228F90A3389A25E230E0358B248B4A
:1018A00080E1858F249A378B268B88E0868F239A58
:1018B0000895FC01462F60E020890E94930A089554
:1018C000FF920F931F938C01262FF42E61E0422F7D
:1018D000F80120890E94930AC80161E04F2DF801A8
:1018E00020890E94930A1F910F91FF900895FC0197
:1018F000462F61E020890E94930A0895EF92FF929B
:101900000F931F938C017A010E94590C6F2D77273A
:1019100067FD7A95C8014E2D0E94600C1F910F91B2
:10192000FF90EF9008950F931F93CF93DF93EC01F7
:101930006E83EE89FF8980819E8D892B808380E272
:101940009EE40197F1F7EE89FF8990818E8D809555
:101950008923808320E63AEEC9010197F1F7EE89E9
:10196000FF8980819E8D892B8083C9010197F1F7C2
:10197000EC89FD8990818D8D809589238083CE01AE
:1019800061EC0E94590CCE016FEF0E94770CCE01E2
:1019900063E80E94770CCE0160E40E94770CCE01D0
:1019A00061E10E94590C88EE93E020E931E0F901F1
:1019B0003197F1F70197D9F7CE016AEC0E94590CE3
:1019C000CE0160E70E94770CCE0160E00E94770CA8
:1019D000CE0169ED0E94770CCE0161E00E94770C88
:1019E000CE0161E10E94770CCE0169EC0E94590C96
:1019F000CE0160E90E94770CCE0169E40E94770C69
:101A0000CE0160E10E94770CCE0168E20E94770C63
:101A1000CE0168E20E94770CCE0160E10E94770C53
:101A2000CE0160E00E94770CCE0166E00E94770C48
:101A300088EC90E020E931E0F9013197F1F7019766
:101A4000D9F7CE0162EC0E94590CCE0160E60E94EB
:101A5000770CCE0161E70E94770CCE0161E00E9415
:101A6000770CCE016EE00E94770CCE0165E00E94FB
:101A7000770CCE0162E00E94770CCE0169E00E94F3
:101A8000770CCE0161E30E94770CCE016AE00E94E0
:101A9000770CCE0163EC0E94590CCE0167E60E94E0
:101AA000770CCE0160E30E94770CCE0161E60E94C4
:101AB000770CCE0167E10E94770CCE0168E40E94AA
:101AC000770CCE0167E00E94770CCE0165E00E94A2
:101AD000770CCE0163E30E94770C00E41CE9C80197
:101AE0000197F1F7CE0165EB0E94590CCE0165E339
:101AF0000E94770CCE0160E20E94770CCE0165E473
:101B00000E94770CCE0164EB0E94590CCE0163E376
:101B10000E94770CCE0165E20E94770CCE016CE446
:101B20000E94770CC8010197F1F7CE016AE30E9489
:101B3000590CCE0165E00E94770CCE0169E20E944B
:101B4000590CC8010197F1F7CE016AE20E94590CC5
:101B5000CE0160E00E94770CCE0160E00E94770C1D
:101B6000CE0160E00E94770CCE016FEA0E94770CF4
:101B7000CE016BE20E94590CCE0160E00E94770C0E
:101B8000CE0160E00E94770CCE0160E00E94770CED
:101B9000CE016BED0E94770CCE016CE20E94590CD5
:101BA000EC89FD8980819D8D892B80838FEF8883CF
:101BB00089838A831B821C821D821AA219A2DF914B
:101BC000CF911F910F910895AF92BF92CF92DF9264
:101BD000EF92FF920F931F93CF93DF93EC017B0162
:101BE0005A0169018E81813059F48B859C859C0155
:101BF000261B370B7A015C01AC18BD08680189010E
:101C00008F858730C1F5CE016AE20E94590C6F2D95
:101C1000772767FD7A95CE010E94770CCE016E2D55
:101C20000E94770C6D2D772767FD7A95CE010E9473
:101C3000770CCE016C2D0E94770CCE016BE20E94D6
:101C4000590C6B2D772767FD7A95CE010E94770C92
:101C5000CE016A2D0E94770C612F772767FD7A9558
:101C6000CE010E94770CCE01602F0E94770CCE012E
:101C70006CE20E94590CDF91CF911F910F91FF9060
:101C8000EF90DF90CF90BF90AF9008950F931F9388
:101C9000FC018681A781B08503851485882339F4EA
:101CA000CF0160E070E040E050E09D0107C0CF014F
:101CB00060E070E040E050E098018D010E94E40D8A
:101CC0001F910F9108952F923F924F925F926F92C2
:101CD0007F928F929F92AF92BF92CF92DF92EF92BC
:101CE000FF920F931F93DF93CF93CDB7DEB72A9761
:101CF0000FB6F894DEBF0FBECDBF9A87898778876D
:101D00006F831A01790121E030E02E193F093E83EB
:101D10002D83C701880F991FAA27BB27A81BB90BC2
:101D2000BA83A983E985FA858181992787FD9095F2
:101D30009C0165E0359527956A95E1F74080F8EFBD
:101D40004F22422A8C71907053E0880F991F5A9548
:101D5000E1F7A985BA8512965C901297559455942F
:101D60005594582A5496ED91FC91559790815D9623
:101D70008C918095892380838701020D131D8985AD
:101D80009A856F817885A8019B010E94E40D898561
:101D90009A85642D452D0E94600C81010E191F0942
:101DA00089859A856F817885A8019B010E94E40D41
:101DB00089859A85642D452D0E94600C2F81388578
:101DC0002E0D3F1D89859A85B901A10181010E94CF
:101DD000E40D89859A85642D452D0E94600C2F8124
:101DE00038852E193F0989859A85B901A1010E947C
:101DF000E40D89859A85642D452D0E94600C37017C
:101E0000E1E0F0E0FC83EB8388249924A6C02D81D7
:101E10003E8137FD0CC008946108710889819A8160
:101E200002969A838983280F391F3E832D83089455
:101E3000811C911CAB81BC811296BC83AB83ED816C
:101E4000FE81EA0FFB1FFE83ED83AF80B884A80CF0
:101E5000B91C7301E20CF31C89859A85B501A701B1
:101E6000950187010E94E40D89859A85642D452D91
:101E70000E94600CCF80D884C818D90889859A85BB
:101E8000B601A70196010E94E40D89859A85642D0B
:101E9000452D0E94600C7101E618F70889859A8526
:101EA000B501A701950187010E94E40D89859A85F6
:101EB000642D452D0E94600C89859A85B601A70185
:101EC00096010E94E40D89859A85642D452D0E9416
:101ED000600CAF80B884A60CB71C7401E20CF31C34
:101EE00089859A85B501A701950187010E94E40DB6
:101EF00089859A85642D452D0E94600CCF80D884F9
:101F0000C618D70889859A85B601A70196010E944F
:101F1000E40D89859A85642D452D0E94600C710120
:101F2000E818F90889859A85B501A7019501870107
:101F30000E94E40D89859A85642D452D0E94600CD0
:101F400089859A85B601A70196010E94E40D8985CD
:101F50009A85642D452D0E94600C861497040CF41C
:101F600056CFA985BA855496ED91FC9155978081FD
:101F70005D969C91892B808389859A850E94460E67
:101F80002A960FB6F894DEBF0FBECDBFCF91DF917A
:101F90001F910F91FF90EF90DF90CF90BF90AF9087
:101FA0009F908F907F906F905F904F903F902F9079
:101FB00008952F923F924F925F926F927F928F92ED
:101FC0009F92AF92BF92CF92DF92EF92FF920F93C8
:101FD0001F93DF93CF9300D000D000D0CDB7DEB7F2
:101FE0009E838D831B017A013901DC015496ED91AA
:101FF000FC91559790815D968C9180958923808383
:1020000044245524421A530A229FF001239FF00DC5
:10201000329FF00D1124FA83E983E40CF51C420190
:10202000240C351C45C0AA9CC001AB9C900DBA9CE9
:10203000900D11242B813C81820F931FA981BA81BD
:10204000A817B90734F18D819E81B601A7019601C9
:1020500087010E94E40DED81FE818181992787FD32
:1020600090959C01B5E035952795BA95E1F760818B
:10207000687F622B8C719070A3E0880F991FAA95DE
:10208000E1F74281459545954595482BCF010E9442
:10209000600C0894A11CB11C0894C11CD11C6A14CA
:1020A0007B040CF60894811C911C0894E11CF11C23
:1020B0006814790464F0889C9001899C300D989C88
:1020C000300D11243C832B8361015201E8CFAD8197
:1020D000BE815496ED91FC91559780815D969C91BF
:1020E000892B80838D819E810E94460E26960FB695
:1020F000F894DEBF0FBECDBFCF91DF911F910F913E
:10210000FF90EF90DF90CF90BF90AF909F908F9017
:102110007F906F905F904F903F902F900895EF9237
:10212000FF920F931F93CF93DF93EC01EC89FD890E
:1021300090818D8D809589238083CE010E94460EEB
:10214000EE24FF24870111C0CE0161E040E0288920
:102150000E94930ACE0161E040E028890E94930A20
:102160000894E11CF11C011D111D6B857C858D857A
:102170009E856F5F7F4F8F4F9F4F2F813885498599
:102180005A852F5F3F4F4F4F5F4F0E947A26E616CA
:10219000F70608071907C4F2EC89FD8980819D8D37
:1021A000892B8083DF91CF911F910F91FF90EF904A
:1021B0000895CF92DF92EF92FF920F931F93CF93E8
:1021C000DF93EC01C62ED22E552747FD5095CA014C
:1021D00005E0959587950A95E1F728EFC222C82A70
:1021E000D594D594D5944C71507013E0440F551F7D
:1021F0001A95E1F7D42AEC89FD8990818D8D80951F
:1022000089238083CE010E94460EEE24FF2487019D
:1022100011C0CE0161E04C2D28890E94930ACE01A5
:1022200061E04D2D28890E94930A0894E11CF11C5D
:10223000011D111D6B857C858D859E856F5F7F4F90
:102240008F4F9F4F2F81388549855A852F5F3F4F8C
:102250004F4F5F4F0E947A26E616F70608071907C8
:10226000C4F2EC89FD8980819D8D892B8083DF916B
:10227000CF911F910F91FF90EF90DF90CF90089535
:10228000FC016083418322830895FC0163834483BE
:1022900025830895552747FD5095FA0175E0F5957A
:1022A000E7957A95E1F7687F6E2B2595259525951D
:1022B0004C71507033E0440F551F3A95E1F7242BD1
:1022C000422F0E94600C0895EF92FF920F931F938C
:1022D0007C019B018A01DC015496ED91FC9155979C
:1022E00090815D968C91809589238083C7010E949F
:1022F000E40DC701F7016081418122810E944A11EA
:10230000D7015496ED91FC91559780815D969C91F3
:10231000892B8083C7010E94460E1F910F91FF9069
:10232000EF900895CF92DF92EF92FF920F931F9359
:10233000CF93DF93EC018A0169018981992787FD99
:1023400090959C01F5E035952795FA95E1F7E880A1
:1023500048EFE422E22A8C719070E3E0880F991F25
:10236000EA95E1F7FA80F594F594F594F82AEC896A
:10237000FD8990818D8D8095892380839601260F1C
:10238000371FCE01A8010E94E40D00E010E007C055
:10239000CE016E2D4F2D0E94600C0F5F1F4FC01697
:1023A000D106B4F7EC89FD8980819D8D892B8083CE
:1023B000CE010E94460EDF91CF911F910F91FF90A9
:1023C000EF90DF90CF9008952F923F924F925F92BF
:1023D0006F927F928F929F92AF92BF92CF92DF9235
:1023E000EF92FF920F931F93DF93CF93CDB7DEB79A
:1023F0002A970FB6F894DEBF0FBECDBF4C017B010C
:102400006A01A9012617370714F47901AB010C15ED
:102410001D051CF4C80186016C015A01AE18BF08E5
:1024200025E0A216B1040CF46CC0C8018C199D09FA
:10243000853091050CF465C0FC01F595E795FA83AC
:10244000E9831A86198697012E5F3F4F3C832B83C1
:10245000BCEF2B2EBFEF3B2E2A0C3B1C2701089410
:10246000411C511CAEEF6A2EAFEF7A2E6A0C7B1C1A
:10247000C60101969E838D83F8013197F887EF831B
:1024800029853A852115310521F021303105D9F40E
:102490000DC0C4016B817C81A60191010E94921143
:1024A000C4016B817C81A80191011EC0C401B201ED
:1024B0004D815E8193010E949211C401B2014F814E
:1024C0005885930111C049855A854C0D5D1DC40185
:1024D000B70195010E949211A80189859A85481B30
:1024E000590BC401B70195010E949211E985FA8543
:1024F0003196FA87E98729813A812E173F070CF038
:10250000BFCF2A960FB6F894DEBF0FBECDBFCF91D6
:10251000DF911F910F91FF90EF90DF90CF90BF90D0
:10252000AF909F908F907F906F905F904F903F9073
:102530002F900895CF92DF92EF92FF920F931F9307
:10254000CF93DF93EC01DB0169018981992787FD36
:1025500090959C0165E0359527956A95E1F7E880AF
:1025600068EFE622E22A8C71907023E0880F991FB1
:102570002A95E1F7FA80F594F594F594F82AEC8918
:10258000FD8990818D8D8095892380838601040F3C
:10259000151FCE01BD019D010E94E40D00E010E079
:1025A00007C0CE016E2D4F2D0E94600C0F5F1F4F94
:1025B0000C151D05B4F3EC89FD8980819D8D892B57
:1025C0008083CE010E94460EDF91CF911F910F9123
:1025D000FF90EF90DF90CF9008952F923F924F920F
:1025E0005F926F927F928F929F92AF92BF92CF92A3
:1025F000DF92EF92FF920F931F93DF93CF93CDB7AC
:10260000DEB762970FB6F894DEBF0FBECDBF1C01D8
:10261000788B6F872A0139014801DC016C91119692
:102620005C91119712964C91C901EF85F8898E1B28
:102630009F0B97FF05C03F01388B2F874201280170
:10264000C4018419950997FF08C0C3016F84788875
:10265000988B8F87C40142012C0148145904A1F4BE
:10266000EF84F8886E147F0424F4C3013701988B3B
:102670008F870F851889601A710AC101B801A201FC
:1026800093010E9492116AC12F853889261537055A
:1026900081F4841495041CF4C40142012C018418B3
:1026A0009508C1016F857889A20194010E949A1250
:1026B00055C1852F992787FD90959C01E5E03595BB
:1026C0002795EA95E1F7687F562F522B5E838C7130
:1026D000907073E0880F991F7A95E1F745954595BD
:1026E0004595A42FA82BAD83A301EF85F8894E1B38
:1026F0005F0B9401241935095A8B498B57FF06C08B
:10270000EE24FF24E41AF50AFA8AE98AB90137FFB0
:1027100004C066277727621B730BD1015496ED9195
:10272000FC9155975D969C9179010027F7FC0095E7
:10273000102FEB86FC860D871E875A01CC24B7FC30
:10274000C094DC2C09891A89601771070CF07DC0D0
:1027500080819095982390836B857C858D859E855F
:102760000E94D3237B018C01C601B5010E94D323B3
:102770009B01AC01C801B7010E9497226F83788743
:1027800089879A87B201882777FD8095982F0E94C4
:10279000D3235B016C012F8538896216730654F5CB
:1027A0004901C601B50120E030E040E05FE30E944E
:1027B00070210E9431247B018C01C101B401A70169
:1027C000940187010E94E40DC1016E814D810E9438
:1027D000600CC601B5012F81388549855A850E9454
:1027E0003F215B016C0108948108910886149704CD
:1027F000C4F6AAC08F849888C601B50120E030E0F5
:1028000040E05FE30E9470210E9431247B018C0133
:10281000C101B401A701940187010E94E40DC10127
:102820006E814D810E94600CC601B5012F813885F3
:1028300049855A850E9470215B016C010894811CB6
:10284000911C68147904C4F67FC080819095982308
:102850009083C601B5010E94D3237B018C016B8557
:102860007C858D859E850E94D3239B01AC01C80188
:10287000B7010E94972269837A838B839C83EF85BB
:10288000F889BF01882777FD8095982F0E94D32370
:102890005B016C018414950414F0320152C0089459
:1028A000811C911C25C0C601B50120E030E040E04C
:1028B0005FE30E9470210E9431248B019C01C101C1
:1028C000B801A401980184010E94E40DC1016E8148
:1028D0004D810E94600CC601B50129813A814B816E
:1028E0005C810E9470215B016C0108948108910851
:1028F00048145904C4F228C0C601B50120E030E0F4
:1029000040E05FE30E9470210E9431248B019C0112
:10291000C101B801A301980183010E94E40DC10126
:102920006E814D810E94600CC601B50129813A81FA
:102930004B815C810E9470215B016C010894611CD9
:10294000711C86149704C4F6D1015496ED91FC9144
:10295000559780815D969C91892B8083C1010E944F
:10296000460E62960FB6F894DEBF0FBECDBFCF9174
:10297000DF911F910F91FF90EF90DF90CF90BF906C
:10298000AF909F908F907F906F905F904F903F900F
:102990002F9008956F927F928F929F92AF92BF92E5
:1029A000CF92DF92EF92FF920F931F93CF93DF931B
:1029B0003C014B015A01690178012617370714F4CD
:1029C0006B014901EA14FB041CF4C70175015C01A9
:1029D000F3018681882369F0C6018819990962E0AC
:1029E00070E00E9499268B01C0E0D0E0EA18FB0855
:1029F00033C0C7018A199B0962E070E00E949926E2
:102A00008B01C0E0D0E0C818D90811C0AE014A0D52
:102A10005B1DC301B40196010E949211A7014C1BDA
:102A20005D0BC301B40196010E94921121960C170F
:102A30001D0764F714C0BE01680D791DC301A5010F
:102A400097010E949A12B6016C1B7D0BC301A50170
:102A500097010E949A1221960C171D0764F7DF91C7
:102A6000CF911F910F91FF90EF90DF90CF90BF908B
:102A7000AF909F908F907F906F9008952F923F928C
:102A80004F925F926F927F928F929F92AF92BF927E
:102A9000CF92DF92EF92FF920F931F93DF93CF932A
:102AA00000D000D0CDB7DEB73C014B015C834B8337
:102AB000290158012617370714F42B0149012B81EE
:102AC0003C81A216B30624F4C50159019C838B8373
:102AD00012012818390835E0231631040CF458C0C7
:102AE000C501EB81FC818E1B9F0B9A83898305971F
:102AF0000CF44EC064010894C11CD11C8F010F5FFF
:102B00001F4FC301B601A8010E946411720108940D
:102B1000E108F108C301B701A8010E946411850111
:102B200001501040C301B601A8010E946411C30105
:102B3000B701A8010E94641184010E5F1F4FFCEFD2
:102B4000EF2EFFEFFF2EE20CF31CC301B8014B8107
:102B50005C8197010E949211C301B801A501970100
:102B60000E9492110B811C810E5F1F4FE980FA8039
:102B70002CEF3FEFE20EF31EC301B401A801970151
:102B80000E949A12C301B201A80197010E949A12F1
:102B90000F900F900F900F90CF91DF911F910F9199
:102BA000FF90EF90DF90CF90BF90AF909F908F906D
:102BB0007F906F905F904F903F902F9008958F92ED
:102BC0009F92AF92BF92CF92DF92EF92FF920F93BC
:102BD0001F93CF93DF934C01EB017A0159016801F8
:102BE0002617370714F45B01E901CE14DF041CF447
:102BF000C60167017C0185010C1B1D0BC401BE01D0
:102C0000A70198010E949211C401BE01A60198017A
:102C10000E94921186010E191F09C401BE01A7016D
:102C200098010E949A12C401B501A70198010E945F
:102C30009A12DF91CF911F910F91FF90EF90DF904B
:102C4000CF90BF90AF909F908F9008952F923F921A
:102C50004F925F926F927F928F929F92AF92BF92AC
:102C6000CF92DF92EF92FF920F931F93CF93DF9358
:102C7000EC012A011901EC89FD8990818D8D8095E7
:102C8000892380838E810BA19CA1E62EFF24E7FC83
:102C9000F094882309F061C0202F30E021503040AB
:102CA000240F351F092F10E001501040020D131D95
:102CB000CE01BA01A1010E94E40D8BA186958695F3
:102CC00086952CA1829FC00111242DA1E21AF10842
:102CD0008E9D60018F9DD00C9E9DD00C112444E0F0
:102CE00050E0C40ED51EEE24FF242BC0E9A1FAA1AA
:102CF000EC0DFD1DE49107E010E0AE2EBB24A7FC17
:102D0000B094C501002E02C0959587950A94E2F70C
:102D100080FF05C0CE01688149812A8104C0CE01AF
:102D20006B814C812D810E944A11015010405FEF50
:102D30000F3F150731F70894C11CD11C0894E11C02
:102D4000F11C8BA18695869586952CA1829FC0014A
:102D50001124E816F90654F281C0069506950695E9
:102D6000099F900111248DA1E81AF1082E9D5001B0
:102D70002F9DB00C3E9DB00C112484E090E0A80E75
:102D8000B91E8824992455C0C4010E9499268B013C
:102D9000020D131D30E021503040240D351DCE01B1
:102DA000B201A8010E94E40D8BA1869586958695B7
:102DB000E82EFF240894E108F1086701CA0CDB1C27
:102DC0002AC0E9A1FAA1EC0DFD1DE49100E010E09C
:102DD0006E2E772467FC7094C301002E02C0959577
:102DE00087950A94E2F780FF05C0CE01688149818A
:102DF0002A8104C0CE016B814C812D810E944A1131
:102E00000F5F1F4F0830110539F70894E108F108EA
:102E10000894C108D1089FEFE9169FEFF90689F6DB
:102E20008BA186958695869590E0A80EB91E880E92
:102E3000991E2BA1822F869586958695682F70E026
:102E40008CA190E0AC01649FC001659F900D749FC0
:102E5000900D1124881699060CF496CFEC89FD8903
:102E600080819D8D892B8083CE010E94460EDF914B
:102E7000CF911F910F91FF90EF90DF90CF90BF9077
:102E8000AF909F908F907F906F905F904F903F900A
:102E90002F900895DC01FB0192967C936E9391979D
:102EA000849193968C9393973196849194968C9376
:102EB00094973196849195968C9395973196E49159
:102EC0009696EC9308952F923F924F925F926F9255
:102ED0007F928F929F92AF92BF92CF92DF92EF92AA
:102EE000FF920F931F93DF93CF93CDB7DEB7689711
:102EF0000FB6F894DEBF0FBECDBF5C011B014A01C7
:102F00003A8B298B1C8B0B8BDC0116968C91B1E0D4
:102F1000CB16D10409F082C0D5015496ED91FC91F5
:102F200055975D969C918823A9F58081909598236B
:102F300090839B0121503040E989FA892E0F3F1F71
:102F40008A01015010406B897C89060F171FC5014B
:102F5000B1010E94E40D8B899C89A989BA898A9F55
:102F600060018B9FD00C9A9FD00C112400E010E0E0
:102F70000DC0F70145915491C501652F0E94600C69
:102F80000F5F1F4FE2E0F0E0EE0EFF1E0C151D0577
:102F900084F32BC1808190959823908369887A88E7
:102FA000660C771CE60CF71CCC24DD240894210861
:102FB000310849885A88420C531C0894211C311C42
:102FC00027C08601080D191DC501B101A801920194
:102FD0000E94E40DE989FA89F88FEF8B87010FC011
:102FE000F80145915491C501652F0E94600C2F890D
:102FF000388D21503040388F2F8B025010406F8910
:10300000788D77FFEDCF0894C11CD11CE60CF71C1E
:103010008B899C89C816D906A4F2E7C0D5015496BD
:10302000ED91FC9155975D969C91AB0141505040BC
:1030300029893A89220F331F3E8B2D8B69897A8922
:10304000C69E9001C79E300DD69E300D1124882358
:1030500009F06AC08081909598239083CA01820FFD
:10306000931F988B8F872401D601A80DB91DBE87A9
:10307000AD87FC82EB821A8619864DC0C501B1016D
:10308000A2012F8538890D851E850E94E40D8824B4
:10309000992424C0F70165907490788600E010E0D0
:1030A00007C0C5016885462D0E94600C0F5F1F4F49
:1030B0000C151D05B4F3EF89F88D3196F88FEF8B61
:1030C00022E030E0E20EF31E6F89788D89899A89BB
:1030D00068177907FCF20894811C911C8C149D04DC
:1030E0002CF4EB80FC80188E1F8AEECFA985BA8560
:1030F0001196BA87A9874C0C5D1CED85FE85EC0DF9
:10310000FD1DFE87ED872B813C816D897E89260F11
:10311000371F3C832B8389859A85AB89BC898A17A5
:103120009B070CF4ABCF61C080819095982390836E
:10313000FA01E20FF31FFF83EE832D893E892E0DE6
:103140003F1D3A8329839C868B864424552445C0A1
:103150000B851C85080D191DC501B101A8012E8123
:103160003F810E94E40DE988FA8869817A81788F2D
:103170006F8B1AC0EF89F88D659074907D8200E0A6
:1031800010E007C0C5016D81462D0E94600C0F5FE5
:103190001F4F0C151D05B4F30894E108F1088F8941
:1031A000988D0297988F8F8BF7FEE4CF0894811C3F
:1031B000911C8C149D0464F20894411C511CA9813B
:1031C000BA81ED89FE89AE0FBF1FBA83A9832B8513
:1031D0003C852C0D3D1D3C872B876B897C894616D1
:1031E00057061CF488249924E4CFD5015496ED9118
:1031F000FC91559780815D969C91892B8083C501B8
:103200000E94460E68960FB6F894DEBF0FBECDBF83
:10321000CF91DF911F910F91FF90EF90DF90CF90B2
:10322000BF90AF909F908F907F906F905F904F90E6
:103230003F902F900895FC01A489B5899C91858DBC
:10324000809589238C93A489B5898C91958D892B40
:103250008C930895FC01A489B5899C91858D8095F6
:1032600089238C93A489B5898C91958D892B8C9316
:103270000895FC01A489B5899C91858D8095892349
:103280008C93A489B5898C91958D892B8C93089505
:10329000FC018681882319F42781308502C02385AB
:1032A00034852F5F3F4FC9010895FC018681882333
:1032B00019F42385348502C0278130852F5F3F4F65
:1032C000C90108952F923F924F925F926F927F9221
:1032D0008F929F92AF92BF92CF92DF92EF92FF9226
:1032E0000F931F93DF93CF93CDB7DEB7E4970FB65D
:1032F000F894DEBF0FBECDBF9E8F8D8F3B012A019C
:1033000038A32F8F1AA309A3B601882777FD8095CC
:10331000982F0E94D32329E23CE54FE85CE30E940A
:103320009D216BA37CA38DA39EA3CD2861F48D8DDD
:103330009E8DB301A2012F8D38A1E1E0CE2ED12CBC
:103340000E94631725C1AD8DBE8D5496ED91FC9101
:10335000559790815D968C918095892380832F8DE0
:1033600038A1220F331F3E832D83FA86E9868827F2
:103370009927881999099C838B831E861D86AA2705
:10338000BB27AA19BB09BCA7ABA7A60CB71CC501D4
:10339000AA2797FDA095BA2F8DA79EA7AFA7B8AB78
:1033A000840C951CC401AA2797FDA095BA2F89AB60
:1033B0009AABABABBCABC5C0E981FA81A591B49126
:1033C000BC87AB872F813885B901882777FD809529
:1033D000982F0E94D323698F7A8F8B8F9C8F2BA17C
:1033E0003CA14DA15EA1B901CA010E9434276D8B99
:1033F0007E8B8F8B988F6FA178A589A59AA50E9447
:10340000D323698B7A8B8B8B9C8B2BA13CA14DA1F9
:103410005EA1B901CA010E9492271B012C016DA572
:103420007EA58FA598A90E94D3235B016C01698DAD
:103430007A8D8B8D9C8D2D893E894F89588D0E9468
:103440009D217B018C0169897A898B899C89A201E4
:1034500091010E949D219B01AC01C801B7010E940E
:103460003F219B01AC01C601B5010E9470210E9461
:1034700031243B014C0169A97AA98BA99CA90E941E
:10348000D3235B016C0169897A898B899C892D8999
:103490003E894F89588D0E949D217B018C01698D49
:1034A0007A8D8B8D9C8DA20191010E949D219B01A3
:1034B000AC01C801B7010E9470219B01AC01C6019B
:1034C000B5010E9470210E9431247B018C018D8DF9
:1034D0009E8DB301A701930187010E94E40D8D8D9C
:1034E0009E8D6C854B850E94600C8F859889019616
:1034F000988B8F87A981BA811296BA83A9832F816D
:1035000038852F5F3F4F38872F838F859889AF8D00
:10351000B8A18A179B070CF44FCF2D853E852F5FEE
:103520003F4F3E872D8789859A85AD81BE818A0F61
:103530009B1F9A8789872B813C812F5F3F4F3C835C
:103540002B838D859E85A9A1BAA18A179B07ACF410
:103550002BA53CA538872F8389859A859A838983F3
:10356000188A1F868B819C81AA2797FDA095BA2F68
:103570008FA398A7A9A7BAA7C8CFAD8DBE8D549623
:10358000ED91FC91559780815D969C91892B80836C
:103590008D8D9E8D0E94460EE4960FB6F894DEBF88
:1035A0000FBECDBFCF91DF911F910F91FF90EF9094
:1035B000DF90CF90BF90AF909F908F907F906F9053
:1035C0005F904F903F902F9008952F923F924F928F
:1035D0005F926F927F928F929F92AF92BF92CF92A3
:1035E000DF92EF92FF920F931F93DF93CF93CDB7AC
:1035F000DEB7AE970FB6F894DEBF0FBECDBF9EA765
:103600008DA7C62E5A0149011A8F098FB701882745
:1036100077FD8095982F0E94D32329E23CE54FE85F
:103620005CE30E949D216B8F7C8F8D8F9E8FADA55B
:10363000BEA55496ED91FC91559790815D968C9125
:103640005D9780958923808393968C919397869537
:103650008695869594962C919497829FC00111240B
:10366000DD24C7FCD09495962C91C21AD1088C9D6C
:10367000F0018D9DF00D9C9DF00D11243496F8877E
:10368000EF831A821982C501AA2797FDA095BA2F48
:103690008DA39EA3AFA3B8A7C401AA2797FDA095A9
:1036A000BA2F89A79AA7ABA7BCA708C18D819E8115
:1036B000AF81B8858A0F9B1FADA5BEA59196ED91F0
:1036C000FC919297E80FF91FC4902B8D3C8D4D8D86
:1036D0005E8DB901CA010E9434276D8B7E8B8F8B62
:1036E000988F69A17AA18BA19CA10E94D3237B0111
:1036F0008C012B8D3C8D4D8D5E8DB901CA010E94D0
:103700009227698B7A8B8B8B9C8BC801B701298997
:103710003A894B895C890E949D216D877E878F87BE
:10372000988BC801B7012D893E894F89588D0E9419
:103730009D2169877A878B879C8722243324EC2DEF
:10374000FF27E7FDF095F8A3EF8FADA5BEA59396F3
:103750008C9190E0E98DFA8DE89FB001E99F700DA2
:10376000F89F700D11242B813C81620F731F620D35
:10377000731D882777FD8095982F0E94D3234B01D6
:103780005C016DA17EA18FA198A50E94D3237B012E
:103790008C01C501B4012D893E894F89588D0E9445
:1037A0009D212D853E854F8558890E943F219B0193
:1037B000AC01C801B7010E9470210E9431242B0185
:1037C0003C016B0169A57AA58BA59CA50E94D3231A
:1037D0007B018C01C501B40129893A894B895C8937
:1037E0000E949D219B01AC0169857A858B859C8512
:1037F0000E9470219B01AC01C801B7010E94702199
:103800000E9431249B01AC018B010894C11CD11C86
:103810000F5F1F4F8DA59EA5B201A90196010E94C1
:10382000E40D87E090E082199309AF8DB8A102C042
:10383000B595A7958A95E2F7A0FF07C08DA59EA52F
:10384000FC016081418122810BC08DA59EA5DC0118
:1038500013966C91139714964C91149715962C917E
:103860000E944A110894211C311CB8E02B16310427
:1038700009F06BCFED81FE813196FE83ED832B81C4
:103880003C81285F3F4F3C832B83ADA5BEA593961B
:103890008C9186958695869590E0ED81FE81E8175E
:1038A000F9070CF403CF2F813885280F391F38878B
:1038B0002F8389819A8101969A8389836981ADA535
:1038C000BEA594968C9190E0E981FA81E817F907FA
:1038D0007CF41E821D821C821B82862F992787FD05
:1038E0009095A92FB92F89A39AA3ABA3BCA3CDCF41
:1038F000ADA5BEA55496ED91FC91559780815D963E
:103900009C91892B80838DA59EA50E94460EAE9624
:103910000FB6F894DEBF0FBECDBFCF91DF911F91E0
:103920000F91FF90EF90DF90CF90BF90AF909F905E
:103930008F907F906F905F904F903F902F90089561
:103940002F923F924F925F926F927F928F929F92AF
:10395000AF92BF92CF92DF92EF92FF920F931F939D
:10396000CF93DF935C01F62EE72EEA0119012801BF
:10397000E62FF72FDF010D900020E9F73D010894B5
:10398000610871086E1A7F0AFC018681882321F57F
:10399000F7E24F305F0799F4D5011796CD91DC918E
:1039A0001897219693968C9190E0FC01E69DC001BA
:1039B000E79D900DF69D900D1124C81BD90BF7E2E1
:1039C000CE30DF0709F048C0D50117966D917D9183
:1039D0008D919C911A9722C0F7E24F305F0799F4BE
:1039E000D5011B96CD91DC911C97219693968C91D5
:1039F00090E0FC01E69DC001E79D900DF69D900DC5
:103A00001124C81BD90BF7E2CE30DF0729F5D50109
:103A10001B966D917D918D919C911E976F5F7F4F4D
:103A20008F4F9F4F93962C9130E0F901E69D9001C6
:103A3000E79D300DF69D300D1124442737FD40954C
:103A4000542F621B730B840B950B22E030E040E097
:103A500050E00E94CE26E9018F2D9E2D9C01490148
:103A6000CC24DD2426C041145104A1F4D501939641
:103A70008C9190E0C89EA001C99E500DD89E500D1B
:103A800011244C0F5D1FC501F401608191010E945A
:103A9000261609C0C501D4016C91AE0191018601C1
:103AA00072010E94E51A0894C11CD11C0894811C63
:103AB000911CC614D704BCF2DF91CF911F910F91D6
:103AC000FF90EF90DF90CF90BF90AF909F908F903E
:103AD0007F906F905F904F903F902F9008952F921E
:103AE0003F924F925F926F927F928F929F92AF928E
:103AF000BF92CF92DF92EF92FF920F931F93DF93CB
:103B0000CF93CDB7DEB7EB970FB6F894DEBF0FBEFD
:103B1000CDBF9EAB8DAB2A013B01D22E18AF0FABB0
:103B2000FAAEE9AE2C2C8BAE12161CF0DD24D39429
:103B300005C045E0421714F4B5E0DB2EC301B20125
:103B400020E030E040E050E00E944323882309F069
:103B500051C0A114B104C1F140E050E02D2D332734
:103B600027FD3095C5010297821B930BBE01665E4F
:103B70007F4F07C0FB01E40FF51FABADA0834F5F84
:103B80005F4F48175907B4F3FB01E40FF51F80E3BB
:103B90008083FE01E40FF51F238E4E5F5F4FFB0114
:103BA000E40FF51F4250504080E090E060E36193E5
:103BB000019682179307DCF3FE013196E40FF51F9F
:103BC000E20FF31F138E03C180E38A8F2B8EDE0179
:103BD0005C9680E090E0ED2DFF27E7FDF09520E377
:103BE00002C02D9301968E179F07DCF3EC0FFD1F8B
:103BF000148EEDC0C301B20120E030E040E050E09F
:103C00000E94A32387FD02C0332406C077FA709474
:103C100077F870943324339440E050E021E030E0B2
:103C20008D2C992487FC90940CC0C901880F991F92
:103C3000F3E0220F331FFA95E1F7280F391F4F5F8A
:103C40005F4F481559058CF3B901882777FD80959A
:103C5000982F0E94D3239B01AC01C301B2010E94A3
:103C60009D2120E030E040E05FE30E9470210E944F
:103C700031247B018C01CC24DD2426C0C801B7018E
:103C80002AE030E040E050E00E94AC269B01AC010D
:103C9000E1E0F0E0EC0FFD1FEC0DFD1D862F805DD7
:103CA00080830894C11CD11CE21AF30A040B150B83
:103CB000C801B7012AE030E040E050E00E94AC26A5
:103CC000C901DA017C018D01E114F104010511053E
:103CD000A9F6C301B20120E030E040E85FE30E94B2
:103CE000A323882394F4C301B20120E030E040E034
:103CF00050E00E947323181644F4FE01EC0DFD1DE4
:103D000080E381830894C11CD11CFE013196EC0D27
:103D1000FD1D80E304C081930894C11CD11C8C1448
:103D20009D04CCF7FE01EC0DFD1D1182332011F036
:103D30008DE28A8F232D30E03601620E731EA614A9
:103D4000B7041CF460E070E015C0FE017A96E20F43
:103D5000F31F80E090E00894A108B108A21AB30A0A
:103D6000AC18BD0803C04BAD419301968A159B0565
:103D7000D4F3BC01DE01AC0DBD1D40E050E05E019E
:103D80000894A11CB11CF501E20FF31FE60FF71F09
:103D90008C91818F2F5F3F4FC301821B930B88153E
:103DA000990541F4F501E20FF31FE60FF71F218E8D
:103DB0002F5F3F4F4F5F5F4F11974C155D051CF311
:103DC000FE013196E20FF31FE60FF71F118E8DA94A
:103DD0009EA9BE01665E7F4F4FA958AD29AD3AAD91
:103DE00000E010E00E94A01CEB960FB6F894DEBF36
:103DF0000FBECDBFCF91DF911F910F91FF90EF903C
:103E0000DF90CF90BF90AF909F908F907F906F90FA
:103E10005F904F903F902F9008952F923F924F9236
:103E20005F926F927F928F929F92AF92BF92CF924A
:103E3000DF92EF92FF920F931F93DF93CF93CDB753
:103E4000DEB7E6970FB6F894DEBF0FBECDBF2C01EC
:103E50004A015B0119011EAB0DAB3701411551053C
:103E60006105710511F5E114F104D9F0A0E0B0E0AD
:103E70000894E108F1089E01265E3F4F05C0F90154
:103E8000EA0FFB1FC0821196AE15BF05C4F32A0FBF
:103E90003B1F80E3F9018083AC0FBD1F5B961C9232
:103EA0007EC080E38A8F1B8E7AC077FD02C0DD243E
:103EB0000AC0B094A09490948094811C911CA11C81
:103EC000B11CDD24D39400E010E07E010894E11CD5
:103ED000F11CC501B4012AE030E040E050E00E944E
:103EE000CE269B01AC01F701E00FF11F862F805D0C
:103EF00080830F5F1F4F821A930AA40AB50AC50177
:103F0000B4012AE030E040E050E00E94CE26C90132
:103F1000DA014C015D01181419041A041B04CCF2D7
:103F2000E00EF11EF7011082DD2011F08DE28A8F84
:103F30008D2D90E0B801680F791F661577051CF08C
:103F400040E050E012C0FE017A96E80FF91F40E011
:103F500050E07301E01AF10AE81AF90A03C0C192AD
:103F60004F5F5F4F4E155F05D4F3DE01A00FB11F09
:103F7000FE017A96840F951FE80FF91F20E030E0CC
:103F80008C9181932F5F3F4F119720173107C4F316
:103F9000FE013196E40FF51FE60FF71F118EC201E7
:103FA000BE01665E7F4FA1012DA93EA900E010E091
:103FB0000E94A01CE6960FB6F894DEBF0FBECDBFE0
:103FC000CF91DF911F910F91FF90EF90DF90CF90F5
:103FD000BF90AF909F908F907F906F905F904F9029
:103FE0003F902F900895A0E0B0E0E9EFFFE10C943E
:103FF000FD26DC012B01FA019C91923008F439C1B5
:10400000EB018881823008F433C1943069F4843044
:1040100009F02FC111969C9111978981981709F485
:1040200028C1AEE7B5E025C1843009F421C1823052
:10403000A9F4923009F01DC19A01AD0188E0EA01AE
:104040000990AE01E90109929E018150C1F7E20198
:10405000898111969C918923818308C1923009F44A
:1040600007C112962D903C901397EB018A819B819A
:104070001496AD90BD90CD90DC901797EC80FD80AC
:104080000E811F819101281B390BB90137FF04C034
:1040900066277727621B730B603271050CF061C0D5
:1040A000121613066CF537014801062E04C09694CB
:1040B0008794779467940A94D2F721E030E040E047
:1040C00050E004C0220F331F441F551F6A95D2F7DA
:1040D00021503040404050402E213F214023512369
:1040E000211531054105510521F021E030E040E086
:1040F00050E079018A01E628F728082919293CC0EF
:10410000232BD1F1260E371E35014601062E04C0A1
:1041100096948794779467940A94D2F721E030E0DC
:1041200040E050E004C0220F331F441F551F6A9522
:10413000D2F721503040404050402A213B214C21B1
:104140005D21211531054105510521F021E030E0C7
:1041500040E050E059016A01A628B728C828D928AC
:104160000BC0821593052CF01C01AA24BB24650109
:1041700003C0EE24FF24870111969C91D201119671
:104180008C91981709F445C0992339F0A80197013B
:104190002A193B094C095D0906C0A60195012E1993
:1041A0003F09400B510B57FD08C011823382228218
:1041B00024833583468357831DC081E08183338206
:1041C000228288279927DC01821B930BA40BB50B55
:1041D00084839583A683B7830DC0220F331F441FAA
:1041E000551F2483358346835783828193810197AA
:1041F000938382832481358146815781DA01C90105
:104200000197A109B1098F5F9F4FAF4FBF4328F3BB
:104210000BC0918333822282EA0CFB1C0C1D1D1DF6
:10422000E482F5820683178383E0808324813581CD
:104230004681578157FF1AC0C901AA2797FDA0954B
:10424000BA2F81709070A070B070569547953795D1
:104250002795822B932BA42BB52B84839583A68340
:10426000B78382819381019693838283DF0101C0AA
:10427000D201CD01CDB7DEB7E2E10C941927A0E25F
:10428000B0E0E5E4F1E20C94092769837A838B833B
:104290009C832D833E834F835887E9E0EE2EF12CDB
:1042A000EC0EFD1ECE010196B7010E94A9258E01DC
:1042B0000F5E1F4FCE010596B8010E94A9258A897D
:1042C00091E089278A8BC701B801AE01475E5F4F35
:1042D0000E94F31F0E94D424A096E6E00C942527A8
:1042E000A0E2B0E0E6E7F1E20C94092769837A8363
:1042F0008B839C832D833E834F835887F9E0EF2E79
:10430000F12CEC0EFD1ECE010196B7010E94A925ED
:104310008E010F5E1F4FCE010596B8010E94A925A0
:10432000C701B801AE01475E5F4F0E94F31F0E94B4
:10433000D424A096E6E00C942527A0E2B0E0E3EABE
:10434000F1E20C94FD2669837A838B839C832D8311
:104350003E834F835887CE010196BE01675F7F4F32
:104360000E94A925CE010596BE016F5E7F4F0E9477
:10437000A9259985923088F089898230C8F09430D7
:1043800019F4823051F404C0843029F4923081F45D
:104390008EE795E0C6C0923049F420E09A858A897C
:1043A000981321E02A87CE010996BBC0823049F4D8
:1043B00020E09A858A89981321E02A8BCE014196C4
:1043C000B0C02D843E844F8458886D887E888F8845
:1043D000988CEE24FF248701AA24BB24650140E0C9
:1043E00050E060E070E0E0E0F0E0C10181709070CA
:1043F000892BE9F0E60CF71C081D191D9A01AB0189
:104400002A0D3B1D4C1D5D1D80E090E0A0E0B0E05A
:10441000E614F7040805190520F481E090E0A0E017
:10442000B0E0BA01A901480F591F6A1F7B1FAA0CEF
:10443000BB1CCC1CDD1C97FE08C081E090E0A0E016
:10444000B0E0A82AB92ACA2ADB2A3196E032F1055F
:1044500049F0660C771C881C991C56944794379435
:104460002794C3CFFA85EA892B893C898B859C8563
:10447000280F391F2E5F3F4F17C0CA0181709070FF
:10448000892B61F016950795F794E79480E090E00A
:10449000A0E0B0E8E82AF92A0A2B1B2B769567954D
:1044A000579547952F5F3F4F77FDE7CF0CC0440FDF
:1044B000551F661F771F17FD4160EE0CFF1C001F84
:1044C000111F21503040403090E0590790E06907BB
:1044D00090E4790760F32B8F3C8FDB01CA018F7763
:1044E0009070A070B07080349105A105B10561F4A1
:1044F00047FD0AC0E114F1040105110529F0405CF3
:104500005F4F6F4F7F4F40781A8EFE1711F081E09A
:104510008A8F4D8F5E8F6F8F78A383E0898FCE0156
:1045200049960E94D424A096E2E10C941927A8E1B0
:10453000B0E0EDE9F2E20C94052769837A838B837E
:104540009C832D833E834F835887B9E0EB2EF12C5B
:10455000EC0EFD1ECE010196B7010E94A9258E0129
:104560000F5E1F4FCE010596B8010E94A92529852F
:10457000223008F47EC03989323010F4B8017CC092
:104580008A859A8989278A87243011F0223031F46C
:10459000231709F06EC06EE775E06EC0343039F451
:1045A0001D861E861F86188A1C861B8604C0323014
:1045B00021F484E08987B7015FC02B853C858B8916
:1045C0009C89281B390B3C872B87ED84FE840F8543
:1045D0001889AD88BE88CF88D88CEA14FB040C05F6
:1045E0001D0540F4EE0CFF1C001F111F2150304030
:1045F0003C872B8720E030E040E050E080E090E016
:10460000A0E0B0E460E070E0EA14FB040C051D05D6
:1046100040F0282B392B4A2B5B2BEA18FB080C099E
:104620001D09B695A79597958795EE0CFF1C001F61
:10463000111F6F5F7F4F6F31710531F7DA01C901CB
:104640008F779070A070B07080349105A105B1058E
:1046500061F427FD0AC0E114F1040105110529F0F8
:10466000205C3F4F4F4F5F4F20782D873E874F870D
:10467000588BBE01675F7F4FCB010E94D4246896A0
:10468000EAE00C942127A8E1B0E0E9E4F3E20C941D
:10469000092769837A838B839C832D833E834F8391
:1046A000588789E0E82EF12CEC0EFD1ECE01019614
:1046B000B7010E94A9258E010F5E1F4FCE010596FE
:1046C000B8010E94A9258985823040F0898982300D
:1046D00028F0C701B8010E94212601C081E0689638
:1046E000E6E00C942527A8E1B0E0E9E7F3E20C94BA
:1046F000092769837A838B839C832D833E834F8331
:10470000588789E0E82EF12CEC0EFD1ECE010196B3
:10471000B7010E94A9258E010F5E1F4FCE0105969D
:10472000B8010E94A9258985823040F089898230AC
:1047300028F0C701B8010E94212601C08FEF6896BA
:10474000E6E00C942527A8E1B0E0E9EAF3E20C9456
:10475000092769837A838B839C832D833E834F83D0
:10476000588789E0E82EF12CEC0EFD1ECE01019653
:10477000B7010E94A9258E010F5E1F4FCE0105963D
:10478000B8010E94A9258985823040F0898982304C
:1047900028F0C701B8010E94212601C081E0689677
:1047A000E6E00C942527A8E0B0E0E9EDF3E20C94F4
:1047B00006279B01AC0183E08983DA01C9018827C0
:1047C000B7FD83959927AA27BB27B82E2115310558
:1047D0004105510519F482E089833AC08823A9F084
:1047E000203080E0380780E0480780E8580729F447
:1047F00060E070E080E09FEC30C0EE24FF24870191
:10480000E21AF30A040B150B02C079018A018EE14A
:10481000C82ED12CDC82CB82ED82FE820F831887DA
:10482000C801B7010E94852401971816190684F45F
:10483000082E04C0EE0CFF1C001F111F0A94D2F7B3
:10484000ED82FE820F831887C81AD90ADC82CB82D8
:10485000BA82CE0101960E94D4242896E9E00C94F5
:104860002227ACE0B0E0E7E3F4E20C940D27698383
:104870007A838B839C83CE010196BE016B5F7F4F51
:104880000E94A9258D81823061F1823050F18430FF
:1048900021F48E81882351F12EC02F81388537FD78
:1048A00020C06E812F3131051CF06623F9F023C042
:1048B0008EE190E0821B930B29853A854B855C85C0
:1048C00004C056954795379527958A95D2F7662364
:1048D000B1F050954095309521953F4F4F4F5F4F28
:1048E0000EC020E030E040E050E009C02FEF3FEF85
:1048F0004FEF5FE704C020E030E040E050E8B9014E
:10490000CA012C96E2E00C942927EF92FF920F93B4
:104910001F937B018C0180E0E81680E0F80681E0BF
:10492000080780E0180788F48FEFE816F104010506
:10493000110531F028F088E090E0A0E0B0E017C069
:1049400080E090E0A0E0B0E012C080E0E81680E0F7
:10495000F80680E0080781E0180728F088E190E079
:10496000A0E0B0E004C080E190E0A0E0B0E020E290
:1049700030E040E050E0281B390B4A0B5B0B04C0D1
:1049800016950795F794E7948A95D2F7F701EA57B9
:10499000FA4F8081281B310941095109C9011F9132
:1049A0000F91FF90EF900895DF92EF92FF920F9397
:1049B0001F93FC01E480F58006811781D1808081FE
:1049C000823048F480E090E0A0E1B0E0E82AF92AE3
:1049D0000A2B1B2BA5C0843009F49FC0823021F420
:1049E000EE24FF24870105C0E114F104010511053F
:1049F00019F4E0E0F0E096C0628173819FEF6238C5
:104A000079070CF05BC022E83FEF261B370B2A31F9
:104A100031052CF020E030E040E050E02AC0B80141
:104A2000A701022E04C076956795579547950A947D
:104A3000D2F781E090E0A0E0B0E004C0880F991FB9
:104A4000AA1FBB1F2A95D2F70197A109B1098E2190
:104A50009F21A023B1230097A105B10521F081E09A
:104A600090E0A0E0B0E09A01AB01282B392B4A2B53
:104A70005B2BDA01C9018F779070A070B070803421
:104A80009105A105B10539F427FF09C0205C3F4F0E
:104A90004F4F5F4F04C0215C3F4F4F4F5F4FE0E0EF
:104AA000F0E02030A0E03A07A0E04A07A0E45A076F
:104AB00010F0E1E0F0E079018A0127C0603871056B
:104AC00064F5FB01E158FF4FD801C7018F77907063
:104AD000A070B07080349105A105B10539F4E7FEEE
:104AE0000DC080E490E0A0E0B0E004C08FE390E06F
:104AF000A0E0B0E0E80EF91E0A1F1B1F17FF05C05B
:104B000016950795F794E794319687E016950795E3
:104B1000F794E7948A95D1F705C0EE24FF24870126
:104B2000EFEFF0E06E2F679566276795902F9F77E0
:104B3000D794DD24D7948E2F8695492F462B582F56
:104B40005D29B701CA011F910F91FF90EF90DF908F
:104B50000895FC01DB01408151812281622F6F7732
:104B600070E0221F2227221F9381892F880F822B1A
:104B7000282F30E0991F9927991F11969C93119720
:104B800021153105A9F5411551056105710511F48E
:104B900082E037C082E89FEF13969C938E93129722
:104BA0009A01AB0167E0220F331F441F551F6A951E
:104BB000D1F783E08C930DC0220F331F441F551F84
:104BC00012968D919C911397019713969C938E93B7
:104BD0001297203080E0380780E0480780E45807CB
:104BE00058F314962D933D934D935C931797089526
:104BF0002F3F310579F4411551056105710519F40F
:104C000084E08C93089564FF03C081E08C9312C00C
:104C10001C9210C02F57304013963C932E9312973E
:104C200083E08C9387E0440F551F661F771F8A959A
:104C3000D1F7706414964D935D936D937C931797A1
:104C400008951F93DC01FB019C91923008F447C04A
:104C50008081823008F443C0943051F411961C9145
:104C6000843099F58181682F70E0611B71093FC024
:104C7000843021F0923031F48230B9F1818188237F
:104C800089F12DC011961C9111978230F1F081812C
:104C90001817D9F412962D913C9113978281938124
:104CA0008217930794F028173907BCF014968D915A
:104CB0009D910D90BC91A02D248135814681578115
:104CC000281739074A075B0718F4112341F00AC077
:104CD00082179307A407B50740F4112319F061E088
:104CE00070E005C06FEF7FEF02C060E070E0CB01C5
:104CF0001F910895629FD001739FF001829FE00D84
:104D0000F11D649FE00DF11D929FF00D839FF00D4A
:104D1000749FF00D659FF00D9927729FB00DE11DF6
:104D2000F91F639FB00DE11DF91FBD01CF011124D3
:104D3000089597FB092E07260AD077FD04D049D0A5
:104D400006D000201AF4709561957F4F0895F6F70C
:104D5000909581959F4F0895A1E21A2EAA1BBB1B27
:104D6000FD010DC0AA1FBB1FEE1FFF1FA217B30737
:104D7000E407F50720F0A21BB30BE40BF50B661F4D
:104D8000771F881F991F1A9469F760957095809511
:104D900090959B01AC01BD01CF01089597FB092EB1
:104DA00005260ED057FD04D0D7DF0AD0001C38F4FA
:104DB00050954095309521953F4F4F4F5F4F089547
:104DC000F6F790958095709561957F4F8F4F9F4F27
:104DD0000895AA1BBB1B51E107C0AA1FBB1FA61742
:104DE000B70710F0A61BB70B881F991F5A95A9F794
:104DF00080959095BC01CD0108952F923F924F92DE
:104E00005F926F927F928F929F92AF92BF92CF925A
:104E1000DF92EF92FF920F931F93CF93DF93CDB763
:104E2000DEB7CA1BDB0B0FB6F894DEBF0FBECDBFDB
:104E300009942A88398848885F846E847D848C84AC
:104E40009B84AA84B984C884DF80EE80FD800C81B5
:104E50001B81AA81B981CE0FD11D0FB6F894DEBF98
:104E60000FBECDBFED01089503D0E39528C0D4C097
:104E70003FD0E8F3E894E0E0BB279F57F0F02AED3D
:104E80003FE049EC06C0EE0FBB0F661F771F881F7F
:104E900028F0B23A62077307840728F0B25A620B0F
:104EA000730B840BE3959A9572F7803830F49A95DA
:104EB000BB0F661F771F881FD2F79048A1C0EF93E2
:104EC000E0FF06C0A2EA2AED3FE049EC5FEB3DD0EF
:104ED000C5D00F90039401FC9058ECE7F0E09FC020
:104EE00057FD9058440F551F59F05F3F71F047959B
:104EF000880F97FB991F61F09F3F79F08795089580
:104F0000121613061406551FF2CF4695F1DF08C09E
:104F1000161617061806991FF1CF869571056105BB
:104F2000089408959F93A4DF0F9007FCEE5FC7CF0E
:104F300087D030F08CD020F031F49F3F11F41EF474
:104F40006BC00EF4E095E7FB53C0E92FC9DF80F397
:104F5000BA17620773078407950718F071F49EF576
:104F60008EC00EF4E0950B2EBA2FA02D0B01B901C7
:104F700090010C01CA01A0011124FF27591B99F0CF
:104F8000593F50F4503E68F11A16F040A22F232FDB
:104F9000342F4427585FF3CF469537952795A7952B
:104FA000F0405395C9F77EF41F16BA0B620B730BD2
:104FB000840BBAF09150A1F0FF0FBB1F661F771F43
:104FC000881FC2F70EC0BA0F621F731F841F48F4F8
:104FD000879577956795B795F7959E3F08F0B3CF7E
:104FE0009395880F08F09927EE0F97958795089568
:104FF00097F99F6780E870E060E008959F3F31F087
:10500000915020F4879577956795B795880F911DF6
:105010009695879597F908959FEF80EC08959F9353
:105020008F937F936F93FF93EF939B01AC0185D98F
:10503000EF91FF912BD02F913F914F915F917DC9BF
:1050400000240A9416161706180609060895002467
:105050000A9412161306140605060895092E0394E1
:10506000000C11F4882352F0BB0F40F4BF2B11F455
:1050700060FF04C06F5F7F4F8F4F9F4F0895E8948C
:10508000BB2766277727CB0197F90895DF93CF9346
:105090001F930F93FF92EF92DF927B018C01689434
:1050A00005C0DA2EEF0121D0FE01E894A5912591EB
:1050B000359145915591AEF3EF0147DFFE01970120
:1050C000A801DA9479F7DF90EF90FF900F911F918C
:1050D000CF91DF910895B4DF28F0B9DF18F0952360
:1050E00009F086CF99CF1124CBCFFADEA0F3959F9C
:1050F000D1F3950F50E0551F629FF001729FBB27BF
:10510000F00DB11D639FAA27F00DB11DAA1F649F6A
:105110006627B00DA11D661F829F2227B00DA11D1D
:10512000621F739FB00DA11D621F839FA00D611DA3
:10513000221F749F3327A00D611D231F849F600DC4
:10514000211D822F762F6A2F11249F5750408AF0FD
:10515000E1F088234AF0EE0FFF1FBB1F661F771F89
:10516000881F91505040A9F79E3F510570F040CFE5
:1051700087CF5F3FECF3983EDCF386957795679594
:10518000B795F795E7959F5FC1F7FE2B880F911DA7
:0C5190009695879597F90895F894FFCF45
:10519C00414243444500080C205F00000000000021
:1051AC000000000000000000202020202020002013
:1051BC00000000285050000000000000000000001B
:1051CC002828FC2850FC50500000002078A8A06033
:1051DC003028A8F02000000048A8B05028345448CB
:1051EC000000000020505078A8A8906C00000040EF
:1051FC0040800000000000000000000408101010A7
:10520C001010100804000040201010101010102076
:10521C00400000000020A87070A8200000000000D2
:10522C00202020F8202020000000000000000000BA
:10523C000000004040800000000000F8000000006A
:10524C00000000000000000000000040000000080A
:10525C00101010202040404080000000708888888A
:10526C00888888700000000020602020202020709A
:10527C000000000070888810204080F800000000BA
:10528C0070880830080888700000000010305050FA
:10529C009078101800000000F88080F008088870E2
:1052AC0000000000709080F088888870000000007A
:1052BC00F8901020202020200000000070888870BA
:1052CC00888888700000000070888888780848708A
:1052DC000000000000002000000000200000000082
:1052EC0000000020000000202000000408102040D6
:1052FC0020100804000000000000F80000F8000076
:10530C00000000402010080408102040000000009D
:10531C00708888102020002000000000708898A859
:10532C00A8B880780000000020203050507848CC7D
:10533C0000000000F0484870484848F000000000A9
:10534C00788880808080887000000000F048484891
:10535C00484848F000000000F8485070504048F8A9
:10536C0000000000F8485070504040E00000000081
:10537C00384880809C88483000000000CC48487831
:10538C00484848CC00000000F8202020202020F8BD
:10539C00000000007C10101010101090E0000000B5
:1053AC00EC485060505048EC00000000E040404099
:1053BC00404044FC00000000D8D8D8D8A8A8A8A821
:1053CC0000000000DC486868585848E800000000FD
:1053DC00708888888888887000000000F0484870C1
:1053EC00404040E0000000007088888888E8987091
:1053FC0018000000F0484870504848EC00000000CD
:10540C0078888060100888F000000000F8A8202040
:10541C002020207000000000CC4848484848483004
:10542C0000000000CC484850503020200000000004
:10543C00A8A8A8705050505000000000D850502020
:10544C00205050D800000000D85050202020207050
:10545C0000000000F8901020204048F800000038B0
:10546C0020202020202020203800004040402020F8
:10547C0010101008000000701010101010101010F8
:10548C007000002050000000000000000000000030
:10549C00000000000000000000FC002000000000E4
:1054AC000000000000000000000000304838483CBC
:1054BC0000000000C04040704848487000000000E8
:1054CC000000003848404038000000001808083838
:1054DC004848483C00000000000000304878403844
:1054EC00000000001C202078202020780000000004
:1054FC000000003C4830407844380000C040407008
:10550C00484848EC0000000020000060202020707B
:10551C0000000000100000301010101010E000000F
:10552C00C040405C507048EC00000000E02020209F
:10553C00202020F800000000000000F0A8A8A8A877
:10554C0000000000000000F0484848EC000000009B
:10555C00000000304848483000000000000000F017
:10556C004848487040E0000000000038484848387F
:10557C00081C0000000000D8604040E00000000063
:10558C0000000078403008780000000000202070F7
:10559C002020201800000000000000D84848483C9B
:1055AC0000000000000000EC48503020000000001B
:1055BC00000000A8A870505000000000000000D8A7
:1055CC00502050D800000000000000EC4850302063
:1055DC0020C0000000000078102020780000001887
:1055EC0010101020101010101800101010101010A7
:1055FC0010101010101000602020201020202020EF
:10560C00600040A418000000000000000000000032
:10561C000000000000000001020203030303040465
:10562C000404040404040505050505050505050524
:10563C000505050505050606060606060606060604
:10564C0006060606060606060606060606060606EE
:10565C0006060606060607070707070707070707D4
:10566C0007070707070707070707070707070707BE
:10567C0007070707070707070707070707070707AE
:10568C00070707070707070707070707070707079E
:10569C000707070707070808080808080808080884
:1056AC00080808080808080808080808080808086E
:1056BC00080808080808080808080808080808085E
:1056CC00080808080808080808080808080808084E
:1056DC00080808080808080808080808080808083E
:1056EC00080808080808080808080808080808082E
:1056FC00080808080808080808080808080808081E
:10570C00080808080808080808080808080808080D
:06571C0008080808080857
:00000001FF
